:100000000C9464000C948C000C948C000C948C0068
:100010000C948C000C948C000C948C000C948C0030
:100020000C948C000C948C000C948C000C948C0020
:100030000C948C000C948C000C948C000C948C0010
:100040000C94E7070C948C000C94050A0C94360A67
:100050000C948C000C948C000C948C000C948C00F0
:100060000C94AD0D0C948C000000000024002700BF
:100070002A0000000000250028002B0000000000DE
:1000800023002600290004040404040404040202DA
:100090000202020203030303030301020408102007
:1000A0004080010204081020010204081020000012
:1000B0000007000201000003040600000000000029
:1000C00000006D07FB0A3D0D11241FBECFEFD8E0E5
:1000D000DEBFCDBF11E0A0E0B1E0ECEAF2E202C089
:1000E00005900D92A432B107D9F717E0A4E2B1E070
:1000F00001C01D92A332B107E1F710E0C8ECD0E0D7
:1001000004C02297FE010E945011C23CD107C9F7DA
:100110000E9459060C9454110C940000CF93DF9365
:10012000EC01862F688379835B834A833D832C832C
:1001300061E00E94C6088C8161E00E94C6088A8145
:1001400061E00E94C608DF91CF910895CF93DF93BD
:10015000EC018C8160E00E94EA088A8160E00E94E4
:10016000EA08888161E00E94EA08DF91CF91089552
:10017000CF93DF93EC018C8160E00E94EA088A81D2
:1001800061E00E94EA08888160E00E94EA08DF914D
:10019000CF910895CF93DF93EC018C8161E00E94B1
:1001A000EA088A8160E00E94EA08888160E00E9493
:1001B000EA08DF91CF910895EF92FF920F931F937A
:1001C000CF93DF93EC017A018B01688179818A8179
:1001D0009B8120E030E040E85FE30E94170F6883D6
:1001E00079838A839B836C817D818E819F81A80125
:1001F00097010E94170F6C837D838E839F83C801B4
:10020000B701A80197010E94A2109B01AC0168856B
:1002100079858A859B850E94170F688779878A87E9
:100220009B87DF91CF911F910F91FF90EF900895E1
:10023000CF92DF92EF92FF920F931F93CF93DF93B2
:10024000EC01862F688379835B834A833D832C830B
:100250001F830E83F986E886DB86CA86FE013C96FC
:1002600029E030E01192119221503040D9F7FE017F
:100270007E9629E030E01192119221503040D9F75A
:1002800018AA20E030E0A90129AB3AAB4BAB5CAB3C
:1002900061E00E94C6088A8161E00E94C6088C81E4
:1002A00061E00E94C6088A8560E00E94C608DF916E
:1002B000CF911F910F91FF90EF90DF90CF90089515
:1002C000EF92FF920F931F93CF93DF937C018C01EA
:1002D000045F1F4FC9E0D0E0F801619171918F0177
:1002E00082E496E04AE050E00E94280C82E496E026
:1002F00060E071E00E94730B219771F7F70160A92C
:1003000082E496E070E04AE050E00E94320CDF9117
:10031000CF911F910F91FF90EF900895FC013C96B3
:1003200089E090E021913191318B208B0197D1F7B9
:1003300008952F923F924F925F926F927F928F9289
:100340009F92AF92BF92CF92DF92EF92FF920F9364
:100350001F93DF93CF93CDB7DEB7CC56D0400FB607
:10036000F894DEBF0FBECDBF8C013B01FE0131967C
:100370007F013DE6832E912C8C0E9D1E80E090E047
:10038000DC0180839183A283B38384839583A683D6
:10039000B78380879187A287B3873C96E815F905D4
:1003A00081F7CC24DD245E010894A11CB11C2DE052
:1003B000422E512C4C0E5D1E95E2292E312C2C0E16
:1003C0003D1ED7C0F801808160E00E94EA08F80174
:1003D000828160E00E94EA08F801848160E00E9466
:1003E000EA08F80186810E9478089C01B9018827F3
:1003F00077FD8095982F0E941610AB01BC01C501B6
:100400000E94DC00F801808161E00E94EA08F801A6
:1004100086810E9478089C01B901882777FD809524
:10042000982F0E941610AB01BC01C2010E94DC0093
:10043000F801828161E00E94EA08F80186810E9449
:1004400078089C01B901882777FD8095982F0E9434
:100450001610AB01BC01C1010E94DC00F8018081D3
:1004600060E00E94EA08F80186810E9478089C01F9
:10047000B901882777FD8095982F0E941610AB014F
:10048000BC01CE0149960E94DC00F801848161E044
:100490000E94EA08F80186810E9478089C01B9014F
:1004A000882777FD8095982F0E941610AB01BC011C
:1004B000CE01875B9F4F0E94DC00F801808161E0E4
:1004C0000E94EA08F80186810E9478089C01B9011F
:1004D000882777FD8095982F0E941610AB01BC01EC
:1004E000CE018B5A9F4F0E94DC00F801828160E0B0
:1004F0000E94EA08F80186810E9478089C01B901EF
:10050000882777FD8095982F0E941610AB01BC01BB
:10051000CE01CD960E94DC00F801808160E00E944F
:10052000EA08F80186810E9478089C01B9018827B1
:1005300077FD8095982F0E941610AB01BC01CE016B
:10054000C1960E94DC00F80180850E9478089C0119
:10055000B901882777FD8095982F0E941610AB016E
:10056000BC01CE018F599F4F0E94DC000894C11C32
:10057000D11CC614D7040CF425CFC8010E948E01EB
:100580008CE0C82ED12CC00ED11E5601C8018701A7
:100590007C01F80164817581868197812081318198
:1005A000428153810E947B0F0E94E30FF50161930A
:1005B00071935F01045F1F4F0815190551F78701FB
:1005C000F70182850E94220921E0009709F420E0CA
:1005D000F80120ABEE24AA24FF24BB24882499240C
:1005E00086016F01F8010E5F1F4F62897389808158
:1005F0009181681B790B882777FD8095982F0E9441
:1006000016109B01AC010E94A2109B01AC016E2D43
:100610007A2D8F2D9B2D0E94170FE62EA72EF82ED8
:10062000B92E0894811C911CF9E08F169104D1F623
:10063000862F9A2DAF2DBB2DF60181AB92ABA3ABCC
:10064000B4ABC459DF4F0FB6F894DEBF0FBECDBFB9
:10065000CF91DF911F910F91FF90EF90DF90CF909E
:10066000BF90AF909F908F907F906F905F904F90D2
:100670003F902F9008952F923F925F926F927F92BA
:100680008F929F92AF92BF92CF92DF92EF92FF92A2
:100690000F931F93DF93CF9300D000D0CDB7DEB779
:1006A0003B01FC016081718182E297E04B835C83B6
:1006B0000E94030FF301808311824B815C81C42E61
:1006C000D52E7AE0A72EB12C8824992443C082E24B
:1006D00097E0B8012B833C830E94030F582EB8018A
:1006E0006F5F7F4F82E297E00E94030F8A83198237
:1006F00089819A81850D911D2B813C81F90181931E
:1007000091939F010E5F1F4F0215130501F7089487
:10071000E11CF11CF2E0EF16F10499F0C701880F1B
:10072000991F9C0153E0220F331F5A95E1F7280FC0
:10073000391F2C0D3D1D42E1242E312C200E311E7F
:10074000C6CF0894811C911C84E290E0A80EB91ECB
:10075000C80ED91EF301808191818816990624F470
:100760008501EE24FF24DACF0F900F900F900F90A9
:10077000CF91DF911F910F91FF90EF90DF90CF907D
:10078000BF90AF909F908F907F906F905F903F90C1
:100790002F9008952F923F924F925F926F927F9287
:1007A0008F929F92AF92BF92CF92DF92EF92FF9281
:1007B0000F931F93DF93CF9300D0CDB7DEB72B01FC
:1007C000042FFC016081718182E297E0442D5983FE
:1007D0000E940A0F5981C02ED52E1AE0A12EB12CED
:1007E0008824992447C0390182E297E0B801F901D1
:1007F000408129833A830E940A0F29813A812E5F22
:100800003F4FB8016F5F7F4FF30140815181452F0A
:10081000550F550B82E297E029833A830E940A0F15
:100820000E5F1F4F29813A8102151305E1F60894E6
:10083000E11CF11CF2E0EF16F10499F0C701880FFA
:10084000991F9C01F3E0220F331FFA95E1F7280F5F
:10085000391F2C0D3D1DE2E12E2E312C200E311EB4
:10086000C2CF0894811C911C84E290E0A80EB91EAE
:10087000C80ED91E8414950424F48501EE24FF24A7
:10088000DDCF0F900F90CF91DF911F910F91FF90CF
:10089000EF90DF90CF90BF90AF909F908F907F9020
:1008A0006F905F904F903F902F900895FC01608172
:1008B000718182E297E040E00E940A0F0895CF9391
:1008C000DF93FC01718360835383428389E090E06E
:1008D0009583848317AA16AADF01A859BF4F1D92DA
:1008E0001C92DF01A659BF4F1C92DF01A55CBC4FD3
:1008F0001D921C92EF01DF01D89688E090E02FEF67
:100900003FEF3F832E83188619861A861B86119621
:100910001C921E9212961D921D921D921C9215976A
:10092000019726961696009761F780E090E064E2C2
:1009300070E023C01D921D9241505040D9F72F5FA7
:100940003F4F22303105A9F0A901440F551FDA01AC
:10095000AA0FBB1FAA0FBB1FAA0FBB1FA40FB51F57
:10096000AC0FBD1FA559BF4FAE0FBF1F49E050E0F0
:10097000E1CF01968431910551F020E030E0869F6F
:10098000E001879FD00D969FD00D1124DDCFBF01D0
:10099000655C7C4FAF0145595F4FCF0104960E94C3
:1009A0003B03DF91CF910895CF93DF93FC0146A9DC
:1009B00057A9E859FF4F208131814217530709F1A8
:1009C000518340839A01285F3F4FDC01D896B901DB
:1009D000677070706F5F7F4FFB01EE0FFF1FE60FB8
:1009E000F71FEE0FFF1FED01E80FF91F66E0019002
:1009F00009926150E1F721503040169624173507CF
:100A000031F79C01285C3F4FC901DF91CF910895D8
:100A10000F931F93CF93DF93FC01E55CFC4FA08104
:100A2000B18120E030E004E210E02BC0119211927D
:100A300061507040D9F74F5F5F4F4230510551F41C
:100A40001EC040E050E0209FE001219FD00D309F6C
:100A5000D00D1124BA01660F771FFB01EE0FFF1FA7
:100A6000EE0FFF1FEE0FFF1FE60FF71FEC0FFD1F2E
:100A7000E559FF4FE80FF91F69E070E0D7CF2F5F0E
:100A80003F4F2A173B07ECF2FC01E55CFC4F11825B
:100A9000108204960E945604DF91CF911F910F910E
:100AA0000895FC01E55CFC4F60817181AC01455902
:100AB0005F4F04960E94CA030895CF93DF93BC0151
:100AC000EC01CC59DF4F488159818AEA96E00E94B7
:100AD000AF0C19821882DF91CF910895EF92FF92A7
:100AE0000F931F93CF93DF93EC017B011F821E8234
:100AF00000E010E008C08AEA96E00E94560C9F834E
:100B00008E830F5F1F4F0E151F05ACF38E819F81E3
:100B10008730910509F463C08830910564F485300D
:100B20009105C1F1863091050CF052C084309105D9
:100B300009F071C011C08930910509F460C0893095
:100B400091050CF452C08A30910509F45DC08B30D8
:100B5000910509F060C05DC0A9E0EA2EF12CEC0E11
:100B6000FD1E00E010E0888199810E94D404F70105
:100B7000DC01A00FB11F86E00D9001928150E1F7DA
:100B80000A5F1F4F86E090E0E80EF91E083111055C
:100B900051F741C0F1E2EF2EF12CEC0EFD1E08E101
:100BA00010E0888199810E94D404F701DC01A00F34
:100BB000B11F86E00D9001928150E1F70A5F1F4F4F
:100BC00086E090E0E80EF91E0033110551F723C0CE
:100BD00084E391E00E94A60081E088871CC084E342
:100BE00091E00E94CA00188616C00C80DD81C02DDD
:100BF0000E942F08688379838A839B830CC0888135
:100C000099810E94080507C0888199810E94510539
:100C100002C00C940000DF91CF911F910F91FF90C3
:100C2000EF900895BC0188E795E00E946E05089555
:100C30000F931F93CF93DF9304E311E0C8010E9449
:100C4000B80085E060E00E94C60882E496E040E0DB
:100C500051EE60E070E00E947D0A8BE392E00E941A
:100C60005105CAEAD6E0CE0162E070E00E94300D84
:100C7000CE0168E677E00E94380DCE0162E176E0B1
:100C80000E94330DC8010E94CA00DF91CF911F91CD
:100C90000F910895CF93DF93C6E0D2E0CE0161E0DB
:100CA00070E00E949901CE010E946001DF91CF9116
:100CB0000895CF93DF930E943D080E941806CDE26D
:100CC000DAE00E944A062097E1F30E942D0AF9CF4C
:100CD0009C01FC01EC59FF4F80819181D901A80F43
:100CE000B91F41E04C930196D901A80FB91F6C932D
:100CF000019691838083C90108951F93CF93DF9359
:100D00009C01DC01AC59BF4F8D919C911197F90169
:100D1000E80FF91F14E01083FC013196E901CE0FB2
:100D2000DF1F78833196E901CE0FDF1F688331968C
:100D3000E20FF31F50834183059611969C938E9387
:100D4000C901DF91CF911F9108959C01FC01EC59DD
:100D5000FF4F80819181D901A80FB91F42E04C93C8
:100D60000196D901A80FB91F7C930196D901A80F4C
:100D7000B91F6C93019691838083C90108950F93E5
:100D80001F93CF93DF93EC018E819F818330910578
:100D900009F453C08430910544F48130910571F019
:100DA0008230910509F08FC013C08430910509F499
:100DB0005AC08530910509F086C06BC0E881F98181
:100DC000E55CFC4F8AE391E060810E94680677C091
:100DD000A881B981FD01E659FF4F8081882399F0F0
:100DE000D6968D919C91D797877090700196FC0153
:100DF000EE0FFF1FE80FF91FEE0FFF1FEA0FFB1F9B
:100E00006081718102C06FEF7FEF8AE391E00E9401
:100E100068060C80DD81C02D0E942F08AB01BC014B
:100E200088819981AA81BB81481B590B6A0B7B0B76
:100E30008AE391E00E947D0642C000E010E0EA8172
:100E4000FB81C8010696880F991FE80FF91F608182
:100E500071818AE391E00E94A5060F5F1F4F093060
:100E6000110569F72CC004E010E08AE391E0698580
:100E70000E9468064B855C856D857E858AE391E0DE
:100E80000E947D060150104026960115110569F754
:100E900016C0A19604E010E08AE391E068810E9408
:100EA00068064A815B816C817D818AE391E00E94C2
:100EB0007D060150104026960115110569F78AE359
:100EC00091E00E945D05DF91CF911F910F910895F0
:100ED00088E795E00E94BF060895AF92BF92CF9237
:100EE000DF92EF92FF920F931F93CF93DF931092B5
:100EF000240110922501109226011092270180E012
:100F000090E0DC018093280190932901A0932A01AD
:100F1000B0932B0180932C0190932D01A0932E016F
:100F2000B0932F01109230011092310110923201D2
:100F30001092330184E391E069E070E04BE050E00F
:100F40002AE030E00E948E0010929F0110929E01D4
:100F50001092050210920402A6E0AA2EA2E0BA2E78
:100F6000C50162E070E043E050E024E030E00EE0D4
:100F700010E0FFE0EF2EF12CE5E0CE2ED12C0E9408
:100F80001801CBE3D2E000E311E0CE01B501A801E6
:100F90000E945F04D0937905C0937805B0927B05D9
:100FA000A0927A0510937D0500937C0510927F0531
:100FB00010927E0510928005DF91CF911F910F91C5
:100FC000FF90EF90DF90CF90BF90AF9008951F9269
:100FD0000F920FB60F9211242F933F938F939F93ED
:100FE000AF93BF938091B5059091B605A091B705D9
:100FF000B091B8053091B9050196A11DB11D232FFF
:101000002D5F2D3720F02D570196A11DB11D209386
:10101000B9058093B5059093B605A093B705B09335
:10102000B8058091B1059091B205A091B305B0913A
:10103000B4050196A11DB11D8093B1059093B20531
:10104000A093B305B093B405BF91AF919F918F91D9
:101050003F912F910F900FBE0F901F9018958FB753
:10106000F8942091B5053091B6054091B70550919F
:10107000B8058FBFB901CA010895789484B582601C
:1010800084BD84B5816084BD85B5826085BD85B52C
:10109000816085BDEEE6F0E0808181608083E1E8DB
:1010A000F0E0108280818260808380818160808313
:1010B000E0E8F0E0808181608083E1EBF0E0808116
:1010C00084608083E0EBF0E0808181608083EAE7E8
:1010D000F0E0808184608083808182608083808171
:1010E000816080838081806880831092C100089530
:1010F0008E3008F08E508770909102019295990F72
:10110000990F907C982B90937C0080917A0080645A
:1011100080937A0080917A0086FDFCCF2091780040
:1011200030917900932F80E030E0282B392BC901D2
:101130000895833071F0843028F48130A1F082303A
:1011400021F514C08630B1F08730D1F08430E9F455
:1011500004C0809180008F7703C0809180008F7DD4
:1011600080938000089584B58F7702C084B58F7D09
:1011700084BD08958091B0008F778093B00008956A
:101180008091B0008F7D8093B000089590E0FC01C5
:10119000E656FF4F2491FC01EA57FF4FE491EE23FE
:1011A000C1F0F0E0EE0FFF1FE859FF4F85919491D9
:1011B000DC01662341F49FB7F8948C91209582233B
:1011C0008C939FBF08959FB7F8948C91822B8C933A
:1011D0009FBF08950F931F93DF93CF930F92CDB7C7
:1011E000DEB7282F30E0F901E255FF4F8491F90175
:1011F000E656FF4F14912A573F4FF90104910023FF
:10120000D9F0882321F069830E9499086981E02F31
:10121000F0E0EE0FFF1FEE58FF4F85919491DC0137
:101220009FB7F894662321F48C911095812302C016
:101230008C91812B8C939FBF0F90CF91DF911F9149
:101240000F9108950F931F93282F30E0F901E25575
:10125000FF4F8491F901E656FF4F04912A573F4F03
:10126000F9011491112391F0882311F00E9499083B
:10127000E12FF0E0EE0FFF1FE458FF4F85919491AE
:10128000DC018C91802321E030E011F420E030E09B
:10129000C9011F910F910895FC0184859585FC017A
:1012A000E05CFF4F208131818E5B9F4FFC0180818C
:1012B0009181281B390B2F733070C9010895FC01EF
:1012C00084859585FC01E05CFF4F40815181FC01E4
:1012D000EE5BFF4F208131814217530741F00190AF
:1012E000F081E02DE80FF91F208130E002C02FEFE0
:1012F0003FEFC9010895FC0184859585FC01E05C00
:10130000FF4F40815181FC01EE5BFF4F2081318115
:101310004217530771F0A081B181A80FB91F2C911A
:101320008081918101968F7390709183808330E0EA
:1013300002C02FEF3FEFC9010895DC011E968D9189
:101340009C911F97FC01E05CFF4F8E5B9F4F40819B
:101350005181DC012D913C91119742175307B9F748
:1013600008951F93FC01162F26853785D901A05CAF
:10137000BF4F8D919C91019660E470E00E94051131
:10138000D901AE5BBF4F4D915C91119784179507C2
:10139000D1F3D901A05CBF4F0D90BC91A02DA20F3D
:1013A000B31F1C93A685B785A05CBF4F11969C9375
:1013B0008E93A689B7892C9181E090E0058C02C0BC
:1013C000880F991F0A94E2F7282B2C9381E090E074
:1013D0001F910895FB01E05CFF4F208131812F5F59
:1013E0003F4F2F733070DB01AE5BBF4F4D915C916F
:1013F00011972417350739F0A081B181A60FB71FC7
:101400008C9331832083089508951F920F920FB615
:101410000F9211242F933F934F935F936F937F937A
:101420008F939F93AF93BF93EF93FF938091C600E9
:101430006AEB75E00E94EA09FF91EF91BF91AF91CD
:101440009F918F917F916F915F914F913F912F91DC
:101450000F900FBE0F901F90189582E496E00E94A7
:101460004C09009711F00E94040A08951F920F92F0
:101470000FB60F9211242F933F935F936F937F9337
:101480008F939F93AF93BF93EF93FF9320913E066B
:1014900030913F0680914006909141062817390708
:1014A00031F48091C1008F7D8093C10016C0E0911E
:1014B0004006F0914106E250FA4F208180914006AB
:1014C00090914106019660E470E00E9405119093AE
:1014D0004106809340062093C600FF91EF91BF9193
:1014E000AF919F918F917F916F915F913F912F91DC
:1014F0000F900FBE0F901F901895DF92EF92FF9202
:101500000F931F93CF93DF93EC017A018B01DD24BE
:10151000D394403081EE580780E0680780E0780778
:1015200049F4DD24EC89FD89108260E874E88EE1DD
:1015300090E00FC0EC89FD8981E090E00E8C02C044
:10154000880F991F0A94E2F7808360E079E08DE3C9
:1015500090E0A80197010E941811215030404040AE
:101560005040569547953795279580E120303807AC
:1015700010F0DD20B1F6E889F9893083EA89FB892A
:101580002083EE89FF89408181E090E09C010A8CF4
:1015900002C0220F331F0A94E2F7422B4083EE89E8
:1015A000FF8940819C010B8C02C0220F331F0A94DB
:1015B000E2F7422B4083EE89FF8940819C010C8C2D
:1015C00002C0220F331F0A94E2F7422B4083EE89B8
:1015D000FF8920810D8C02C0880F991F0A94E2F7C1
:1015E000809582238083DF91CF911F910F91FF908F
:1015F000EF90DF900895109245061092440688EE11
:1016000093E0A0E0B0E08093460690934706A09355
:101610004806B0934906E4E4F6E087E091E092934F
:1016200082938AEB95E0958784878EEF95E0978784
:10163000868785EC90E0918B808B84EC90E0938B97
:10164000828B80EC90E0958B848B81EC90E0978B83
:10165000868B86EC90E0918F808F84E0828F83E090
:10166000838F87E0848F85E0858F81E0868F089562
:10167000CF92DF92EF92FF920F931F93CF93DF935E
:101680006C017B018A01C0E0D0E00FC0D7016D91F1
:101690007D01D601ED91FC910190F081E02DC60114
:1016A0000995C80FD91F015010400115110571F798
:1016B000CE01DF91CF911F910F91FF90EF90DF90BE
:1016C000CF900895DB010D900020E9F7AD01415066
:1016D0005040461B570BDC01ED91FC910280F381D9
:1016E000E02D099508950E94620B0895DC01ED91AB
:1016F000FC910190F081E02D099508950F931F93BF
:10170000CF93DF93EC016DE00E94760B8C01CE014C
:101710006AE00E94760B080F191FC801DF91CF9174
:101720001F910F9108958F929F92AF92BF92CF9287
:10173000DF92EF92FF920F931F93DF93CF93CDB77A
:10174000DEB7A1970FB6F894DEBF0FBECDBF6C0118
:10175000042FE52FCB01122F19A2223008F41AE032
:1017600021E2E22EF12CEC0EFD1E812E9924AA24FA
:10177000BB2403C0022FE32FCA01602F7E2FA501D7
:1017800094010E941811129F802D1124081B0894A7
:10179000E108F1080A3014F4005D01C0095CF701AA
:1017A0000083211531054105510521F7C601B70117
:1017B0000E94620BA1960FB6F894DEBF0FBECDBF9C
:1017C000CF91DF911F910F91FF90EF90DF90CF901D
:1017D000BF90AF909F908F900895CF92DF92EF923D
:1017E000FF920F931F93CF93DF93EC017A018B014C
:1017F0002115310541F4E881F9810190F081E02D56
:10180000642F09951AC02A303105A9F477FF12C058
:101810006DE20E94760B6C0144275527BA014E19E0
:101820005F09600B710BCE012AE00E94930BC80E7A
:10183000D91E04C02AE00E94930B6C01C601DF91FF
:10184000CF911F910F91FF90EF90DF90CF9008956F
:101850009A01FB01AF01662757FD6095762F0E9424
:10186000ED0B08950F931F93CF93DF93EC019A0133
:10187000CB01AC01662757FD6095762FCE010E9403
:10188000ED0B8C01CE010E947E0B080F191FC801C1
:10189000DF91CF911F910F9108952091820630E042
:1018A00080918106281B3109C90108958091810624
:1018B00090918206891750F4E82FF0E0EF59F94F24
:1018C000208130E08F5F8093810602C02FEF3FEFD1
:1018D000C9010895E091810680918206E81730F4ED
:1018E000F0E0EF59F94F208130E002C02FEF3FEFD9
:1018F000C90108950895CF93DF939C01CB01E09136
:10190000A806F091A9063097D9F050918106409130
:1019100082065417A8F060E009C0DA01AF59B94F48
:10192000420F531FEA0148814C936F5F462F50E0EE
:101930004817590794F310928106809382060995FF
:10194000DF91CF910895E091A606F091A706309718
:1019500029F01092A3061092A40609950895CF923B
:10196000DF92EF92FF920F931F93CF93DF936C015F
:10197000CB01EA012091A5062223B1F0E62EF92E33
:1019800000E010E00DC0D7016D917D01D601ED9111
:10199000FC910190F081E02DC60109950F5F1F4F6A
:1019A0000C171D0780F303C0642F0E94710DCE0138
:1019B000DF91CF911F910F91FF90EF90DF90CF902B
:1019C0000895DF93CF930F92CDB7DEB7698320914F
:1019D000A5062223D1F02091A406203240F021E078
:1019E00030E0FC013383228320E030E015C0809199
:1019F000A306E82FF0E0ED57F94F998190838F5FB0
:101A00008093A3068093A40605C0CE01019661E0F1
:101A10000E94710D21E030E0C9010F90CF91DF915C
:101A2000089510928106109282061092A3061092D9
:101A3000A4060E94540D0895CF93DF93EC01862FE6
:101A40000E946D0D83EA9CE00E94900D8BE79CE064
:101A50000E948B0DCE010E94110DDF91CF91089550
:101A60000E941C0D08957093A9066093A80608951E
:101A70007093A7066093A60608951092AD06109283
:101A8000AC0688EE93E0A0E0B0E08093AE069093C1
:101A9000AF06A093B006B093B10687E191E09093B2
:101AA000AB068093AA0608951092DA0682E161E0FF
:101AB0000E94EA0883E161E00E94EA08E9EBF0E0B5
:101AC00080818E7F808380818D7F808388E4809376
:101AD000B80085E48093BC000895880F8093BA0015
:101AE00008956132A0F42091DA06243091F46093D5
:101AF000FF06DC01E2E0F7E070E06E0F7F1F02C03E
:101B00008D918193E617F707D9F780E0089581E07A
:101B1000089582E008959093FD068093FC06089551
:101B200090930107809300070895882311F085ECB6
:101B300001C085E88093BC00089585ED8093BC00CA
:101B40008091BC0084FDFCCF1092DA06089585ECEC
:101B50008093BC001092DA0608951F920F920FB680
:101B60000F9211242F933F934F935F936F937F9323
:101B70008F939F93AF93BF93EF93FF938091B9009F
:101B800090E0887F90708036910509F4C2C081365C
:101B90009105E4F58832910509F47EC089329105FA
:101BA000C4F48031910509F472C08131910544F487
:101BB000009709F413C18830910509F013C167C07B
:101BC0008831910509F468C08032910509F00AC195
:101BD00078C08034910509F48AC0813491054CF4B1
:101BE0008033910509F46FC08833910509F0FAC07C
:101BF0006EC08035910509F46EC08835910509F4F1
:101C00007BC08834910509F0EDC0EAC088399105A0
:101C100009F4DAC089399105ECF48837910509F4A3
:101C200078C0893791054CF48836910509F471C064
:101C30008037910509F0D6C06CC08838910509F449
:101C4000C3C08039910509F46AC08038910509F054
:101C5000C9C065C0803B910509F48EC0813B9105E8
:101C60004CF4803A910509F46CC0883A910509F06A
:101C7000B9C082C0803C910509F4AAC0883C910596
:101C800009F4A6C0883B910509F0ACC08AC08091D8
:101C9000B6068093BB0013C09091B7068091B8063A
:101CA000981708F09DC08091B706E82FF0E0E75440
:101CB000F94F90819093BB008F5F8093B70681E0CE
:101CC00084C080E201C080E38093D90689C088E3A4
:101CD0008093D9064EC08091B7069091BB00E82F43
:101CE000F0E0E754F94F90838F5F8093B7069091AF
:101CF000B7068091B80665C08091B7069091BB0089
:101D0000E82FF0E0E754F94F90838F5F8093B70698
:101D100067C083E08093DA061092DB06D0CF809113
:101D2000DB06803208F050C08091DB069091BB004A
:101D3000E82FF0E0E452F94F90838F5F8093DB0649
:101D4000BECF8091DB06803230F4E091DB06F0E01C
:101D5000E452F94F10820E949D0D6091DB06E091E4
:101D6000FC06F091FD068CED96E070E0099510926E
:101D7000DB060E94A70D36C084E08093DA0610923D
:101D8000FE061092FF06E0910007F0910107099509
:101D90008091FF06882329F481E08093FF0610924A
:101DA00002078091FE06E82FF0E0EE5FF84F908189
:101DB0009093BB008F5F8093FE069091FE0680910A
:101DC000FF06981708F47BCF80E00E94950D0AC0AB
:101DD00081E00E94950D1092DA0604C01092D90697
:101DE0000E949D0DFF91EF91BF91AF919F918F91B7
:101DF0007F916F915F914F913F912F910F900FBE07
:101E00000F901F901895F999FECF72BD61BDF89A99
:101E100080B50895F999FECF1FBA72BD61BD40BD6E
:101E20000FB6F894FA9AF99A0FBE08955058BB2746
:101E3000AA270ED04DC13ED130F043D120F031F46D
:101E40009F3F11F41EF433C10EF4E095E7FB29C166
:101E5000E92F4FD180F3BA176207730784079507FC
:101E600018F071F49EF567C10EF4E0950B2EBA2FB1
:101E7000A02D0B01B90190010C01CA01A001112490
:101E8000FF27591B99F0593F50F4503E68F11A163C
:101E9000F040A22F232F342F4427585FF3CF4695CD
:101EA00037952795A795F0405395C9F77EF41F16EF
:101EB000BA0B620B730B840BBAF09150A1F0FF0FB9
:101EC000BB1F661F771F881FC2F70EC0BA0F621FA5
:101ED000731F841F48F4879577956795B795F79595
:101EE0009E3F08F0B3CF9395880F08F09927EE0F27
:101EF0009795879508950CD0EBC0E3D040F0DAD0E9
:101F000030F021F45F3F19F0CCC0511115C1CFC0A2
:101F1000F0D098F39923C9F35523B1F3951B550BD2
:101F2000BB27AA2762177307840738F09F5F5F4FAC
:101F3000220F331F441FAA1FA9F333D00E2E3AF0ED
:101F4000E0E830D091505040E695001CCAF729D007
:101F5000FE2F27D0660F771F881FBB1F2617370756
:101F60004807AB07B0E809F0BB0B802DBF01FF2786
:101F700093585F4F2AF09E3F510568F092C0DCC035
:101F80005F3FECF3983EDCF3869577956795B795C0
:101F9000F7959F5FC9F7880F911D9695879597F9DB
:101FA0000895E1E0660F771F881FBB1F6217730754
:101FB0008407BA0720F0621B730B840BBA0BEE1F69
:101FC00088F7E095089504D06894B111B5C00895DC
:101FD00098D088F09F5790F0B92F9927B751A0F06B
:101FE000D1F0660F771F881F991F1AF0BA95C9F7AD
:101FF00012C0B13081F09FD0B1E008959CC0672F2E
:10200000782F8827B85F39F0B93FCCF3869577955C
:102010006795B395D9F73EF4909580957095619545
:102020007F4F8F4F9F4F0895E89409C097FB3EF470
:1020300090958095709561957F4F8F4F9F4F992315
:10204000A9F0F92F96E9BB279395F6958795779593
:102050006795B795F111F8CFFAF4BB0F11F460FF53
:102060001BC06F5F7F4F8F4F9F4F16C0882311F0AB
:1020700096E911C0772321F09EE8872F762F05C0BF
:10208000662371F096E8862F70E060E02AF09A955A
:10209000660F771F881FDAF7880F9695879597F94F
:1020A000089597F99F6780E870E060E008959FEFDA
:1020B00080EC089500240A941616170618060906DF
:1020C000089500240A9412161306140605060895AE
:1020D000092E0394000C11F4882352F0BB0F40F436
:1020E000BF2B11F460FF04C06F5F7F4F8F4F9F4F76
:1020F000089557FD9058440F551F59F05F3F71F0F8
:102100004795880F97FB991F61F09F3F79F087955E
:102110000895121613061406551FF2CF4695F1DFE7
:1021200008C0161617061806991FF1CF8695710577
:10213000610508940895E894BB2766277727CB01AB
:1021400097F908950BD0C4CFB5DF28F0BADF18F0A7
:10215000952309F0A6CFABCF1124EECFCADFA0F3B1
:10216000959FD1F3950F50E0551F629FF001729F2C
:10217000BB27F00DB11D639FAA27F00DB11DAA1F4B
:10218000649F6627B00DA11D661F829F2227B00D98
:10219000A11D621F739FB00DA11D621F839FA00D23
:1021A000611D221F749F3327A00D611D231F849F73
:1021B000600D211D822F762F6A2F11249F575040CA
:1021C0008AF0E1F088234AF0EE0FFF1FBB1F661F65
:1021D000771F881F91505040A9F79E3F510570F01E
:1021E00060CFAACF5F3FECF3983EDCF386957795FE
:1021F0006795B795F795E7959F5FC1F7FE2B880F19
:10220000911D9695879597F9089597FB092E0726B6
:102210000AD077FD04D02ED006D000201AF4709595
:1022200061957F4F0895F6F7909581959F4F08959A
:10223000A1E21A2EAA1BBB1BFD010DC0AA1FBB1FCA
:10224000EE1FFF1FA217B307E407F50720F0A21B3C
:10225000B30BE40BF50B661F771F881F991F1A94A9
:1022600069F760957095809590959B01AC01BD01D3
:10227000CF010895AA1BBB1B51E107C0AA1FBB1FBA
:10228000A617B70710F0A61BB70B881F991F5A9502
:10229000A9F780959095BC01CD010895EE0FFF1F21
:0C22A0000590F491E02D0994F894FFCF14
:1022AC0020000100000000B109380B4C097B095FCC
:1022BC00099D0900000000E10CAF0C4D0C560C6A96
:0422CC000C7A0C007C
:00000001FF
