:100000000C9464000C948C000C948C000C948C0068
:100010000C948C000C948C000C948C000C948C0030
:100020000C948C000C948C000C948C000C948C0020
:100030000C948C000C948C000C948C000C948C0010
:100040000C94450B0C948C000C94AF0D0C94E00DAB
:100050000C948C000C948C000C948C000C948C00F0
:100060000C94DF100C948C0000000000240027008A
:100070002A0000000000250028002B0000000000DE
:1000800023002600290004040404040404040202DA
:100090000202020203030303030301020408102007
:1000A0004080010204081020010204081020000012
:1000B0000007000201000003040600000000000029
:1000C0000000CB0A270E6F1011241FBECFEFD8E01F
:1000D000DEBFCDBF11E0A0E0B1E0E0EFF9E202C089
:1000E00005900D92A232B107D9F716E0A2E2B1E075
:1000F00001C01D92A732B107E1F710E0C8ECD0E0D3
:1001000004C02297FE010E94F214C23CD107C9F735
:100110000E94B1090C94F6140C940000EF92FF9227
:100120000F931F93CF93DF93EC017A018B016881CA
:1001300079818A819B8120E030E040E85FE30E9482
:100140003612688379838A839B836C817D818E815B
:100150009F81A80197010E9436126C837D838E8354
:100160009F83C801B701A80197010E94ED139B016D
:10017000AC01688579858A859B850E9436126887DF
:1001800079878A879B87DF91CF911F910F91FF908D
:10019000EF900895EF92FF920F931F93CF93DF9309
:1001A000EC017A018B010E948E00688179818A813D
:1001B0009B8120E030E040E85FE30E949A128823B0
:1001C000C9F0C801B7012C853D854E855F850E9429
:1001D0009A1287FF04C0EC86FD860E871F87C80130
:1001E000B701288939894A895B890E94E913181661
:1001F0004CF404C0EC86FD860E871F87E88AF98AD6
:100200000A8B1B8BDF91CF911F910F91FF90EF9085
:100210000895CF93DF93EC01862F688379835B8306
:100220004A833D832C8361E00E94700C8C8161E0E5
:100230000E94700C8A8161E00E94700CDF91CF9166
:100240000895CF93DF93EC018C8161E00E94940CC0
:100250008A8161E00E94940C888160E00E94940C85
:10026000DF91CF910895CF93DF93EC018C8161E012
:100270000E94940C8A8160E00E94940C888161E065
:100280000E94940CDF91CF910895CF93DF93EC01FE
:100290008C8160E00E94940C8A8161E00E94940C41
:1002A000888161E00E94940CDF91CF910895CF92F4
:1002B000EF920F93CF93DF93EC01688349832A83F6
:1002C0000B83EC82CD82FC01369689E090E011929E
:1002D0000197E9F7FE013F9689E090E011920197BE
:1002E000E9F7188E80E090E0DC01898F9A8FAB8F60
:1002F000BC8F888161E00E94700C898161E00E945E
:10030000700C8A8161E00E94700C8D8160E00E9417
:10031000700CDF91CF910F91EF90CF900895FC0179
:10032000618D728D838D948D0E9454140E940613EA
:10033000CB010895FC01369680E090E02191208762
:10034000019689309105D1F70895AF92BF92CF926F
:10035000DF92EF92FF920F931F93CF93DF93EC0105
:100360000E949A01888160E00E94940C898160E07B
:100370000E94940C8A8160E00E94940C8B810E9400
:10038000220C8A588E83888161E00E94940C8B81B4
:100390000E94220C8A588F83898161E00E94940C0C
:1003A0008B810E94220C8A588987888160E00E9494
:1003B000940C8B810E94220C8A5888878A8161E084
:1003C0000E94940C8B810E94220C8A588C87888111
:1003D00061E00E94940C8B810E94220C8A588D87C8
:1003E000898160E00E94940C8B810E94220C8A58C3
:1003F0008B87888160E00E94940C8B810E94220C84
:100400008A588A878C810E94220C8A588E878D8117
:100410000E94CC0C21E0009709F420E0288F80E0B6
:1004200090E0DC01898F9A8FAB8FBC8F8E010A5FC1
:100430001F4FFF24EE24DD24CC24AA24BB24F80182
:100440000F5F1F4F618570E08081681B71098827ED
:1004500077FD8095982F0E9439139B01AC010E9473
:10046000ED139B01AC01D701F6016B2F7E2D8F2F71
:100470009C2D0E943612F62EE72ED82EC92E0894F7
:10048000A11CB11C89E0A816B104C9F6A701960108
:10049000852F942FA32FB22F898F9A8FAB8FBC8F6C
:1004A000DF91CF911F910F91FF90EF90DF90CF9050
:1004B000BF90AF9008952F923F924F925F926F92AC
:1004C0007F928F929F92AF92BF92CF92DF92EF92E4
:1004D000FF920F931F93DF93CF93CDB7DEB7C45B2B
:1004E000D0400FB6F894DEBF0FBECDBF8C013B01EC
:1004F000FE0131967F0165EBA62EB12CAC0EBD1E20
:1005000080E090E0DC0180839183A283B3838483C5
:100510009583A683B78380879187A287B3878487D3
:100520009587A687B787808B918BA28BB38B7496A8
:10053000EA15FB0541F7CC24DD244E010894811C0B
:10054000911C55E1452E512C4C0E5D1E4DE3242E81
:10055000312C2C0E3D1EE2C0F801808160E00E942B
:10056000940CF801818160E00E94940CF801828172
:1005700060E00E94940CF80183810E94220CBC016F
:100580006A587240882777FD8095982F0E9439130A
:10059000AB01BC01C4010E94CA00F801808161E086
:1005A0000E94940CF80183810E94220CBC016A58BD
:1005B0007240882777FD8095982F0E943913AB01F0
:1005C000BC01C2010E94CA00F801818161E00E9461
:1005D000940CF80183810E94220CBC016A5872407D
:1005E000882777FD8095982F0E943913AB01BC01B5
:1005F000C1010E94CA00F801808160E00E94940C51
:10060000F80183810E94220CBC016A58724088273D
:1006100077FD8095982F0E943913AB01BC01CE0164
:1006200089960E94CA00F801828161E00E94940CC0
:10063000F80183810E94220CBC016A58724088270D
:1006400077FD8095982F0E943913AB01BC01CE0134
:1006500087589F4F0E94CA00F801808161E00E9484
:10066000940CF80183810E94220CBC016A587240EC
:10067000882777FD8095982F0E943913AB01BC0124
:10068000CE0183579F4F0E94CA00F801818160E02C
:100690000E94940CF80183810E94220CBC016A58CC
:1006A0007240882777FD8095982F0E943913AB01FF
:1006B000BC01CE018B599F4F0E94CA00F801808176
:1006C00060E00E94940CF80183810E94220CBC011E
:1006D0006A587240882777FD8095982F0E943913B9
:1006E000AB01BC01CE018F5A9F4F0E94CA00F80196
:1006F00084810E94220CBC016A587240882777FDD1
:100700008095982F0E943913AB01BC01CE018F5503
:100710009F4F0E94CA000894C11CD11CC614D70464
:100720000CF41ACFC8010E949A0136E0C32ED12CD6
:10073000C00ED11EC80187017C01F801648175815A
:100740008681978120813181428153810E949E124E
:100750000E940B13F60161936F010C5E1F4F0A1587
:100760001B0559F78701F70185810E94CC0C21E018
:10077000009709F420E0F801208F80E090E0DC0190
:10078000818F928FA38FB48F2FE0822E912C800EB9
:10079000911E9DE0C92ED12CCC0EDD1EAA24BB24B7
:1007A00084E1482E512C1E010894211C311C860125
:1007B0006F01F40161914F01A49C7001A59CF00CA4
:1007C000B49CF00C1124E20CF31C70E080E090E08B
:1007D0000E943713AB01BC01C7010E94CA00F80197
:1007E0006481758186819781208131814281538125
:1007F0000E943512B62FA72FF82FE92FBD01CF0188
:10080000272F362F492F582FCA01B9010E94ED1307
:100810009B01AC01F601618D728D838D948D0E94D8
:100820003612F601618F728F838F948F0894A11C0A
:10083000B11C0C5E1F4FF9E0AF16B10409F0B9CF3F
:10084000CC54DF4F0FB6F894DEBF0FBECDBFCF91B3
:10085000DF911F910F91FF90EF90DF90CF90BF90AD
:10086000AF909F908F907F906F905F904F903F9050
:100870002F9008952F923F924F925F926F927F92A6
:100880008F929F92AF92BF92CF92DF92EF92FF92A0
:100890000F931F93DF93CF9300D0CDB7DEB72B011B
:1008A000FC01608185EC94E070E049835A830E94EA
:1008B0006C0FF201808349815A81A42EB52EEAE0A3
:1008C0008E2E912C6624772430C0B7016C0D7D1DCF
:1008D00085EC94E00E946C0FF10181931F01089454
:1008E000E11CF11CF9E0EF16F10479F70F5F1F4FDF
:1008F00089E090E0C80ED91E0230110569F0180198
:1009000073E0220C331C7A95E1F7200E311E2A0C7D
:100910003B1CEE24FF24D9CF0894611C711CE2E13A
:10092000F0E08E0E9F1EAE0EBF1EF201808190E0A1
:100930006816790624F4640100E010E0E0CF0F901F
:100940000F90CF91DF911F910F91FF90EF90DF906B
:10095000CF90BF90AF909F908F907F906F905F905F
:100960004F903F902F9008952F923F924F925F9219
:100970006F927F928F929F92AF92BF92CF92DF92AF
:10098000EF92FF920F931F93DF93CF930F92CDB708
:10099000DEB7462E042FFC01608185EC94E070E008
:1009A000442D59830E94730F5981A02EB52EAAE0C1
:1009B0008A2E912C66247724552430C0F101419170
:1009C0001F01B7016C0D7D1D85EC94E00E94730F33
:1009D0000894E11CF11CF9E0EF16F10479F70F5FC0
:1009E0001F4F89E090E0C80ED91E0230110569F052
:1009F0001801F3E0220C331CFA95E1F7200E311EAA
:100A00002A0C3B1CEE24FF24D9CF0894611C711CD6
:100A1000E2E1F0E08E0E9F1EAE0EBF1E6414750460
:100A200024F4640100E010E0E3CF0F90CF91DF9158
:100A30001F910F91FF90EF90DF90CF90BF90AF90FC
:100A40009F908F907F906F905F904F903F902F90EE
:100A50000895FC01608185EC94E070E040E00E9424
:100A6000730F0895CF93DF93FC01718360835383E9
:100A7000428389E0848316A615A6DF01A95ABF4FD9
:100A80001D921C92DF01A75ABF4F1C92DF01AE538B
:100A9000BE4F1C92EF01DF019F9688E090E02FEFA0
:100AA0002D831E821F82188619862C9311961D9203
:100AB0001D921D921C9214970197259615960097EA
:100AC00079F720E030E020C01D926F5F7F4F6930E2
:100AD0007105D1F701968230910589F0DC0163E060
:100AE000AA0FBB1F6A95E1F7A80FB91FA40FB51F86
:100AF000A65ABF4FAE0FBF1F60E070E0E5CF2F5F7B
:100B00003F4F2431310571F080E090E0B901660F6C
:100B1000771FAB01B3E0440F551FBA95E1F7460FBD
:100B2000571FDCCFBF016E537E4FAF01465A5F4F58
:100B3000CF0104960E943A04DF91CF910895CF939C
:100B4000DF93FC0145A556A5E95AFF4F208131816D
:100B50004217530709F1518340839A01285F3F4FA1
:100B6000DC019F96B901677070706F5F7F4FFB016A
:100B7000EE0FFF1FEE0FFF1FE60FF71FED01E80F4F
:100B8000F91F65E0019009926150E1F72150304072
:100B900015962417350731F79C01215D3F4FC90198
:100BA000DF91CF9108951F93CF93DF93FC01EE5314
:100BB000FE4F1081143130F5262F372FE901212FF8
:100BC00030E0220F331FF90163E0EE0FFF1F6A953B
:100BD000E1F7E20FF31FE65AFF4FE80FF91F242F4A
:100BE000352FD90120E030E0499141934D91408764
:100BF0002F5F3F4F29303105B9F78E539E4F1F5F4E
:100C0000FC011083DF91CF911F910895CF93DF9363
:100C1000FC01EE53FE4F2081C22FD0E040E050E0B7
:100C20002BC011921196A930B105D9F72F5F3F4F14
:100C30002230310571F41EC020E030E0FA01EE0FE1
:100C4000FF1FBF01B3E0660F771FBA95E1F76E0F84
:100C50007F1FF901A3E0EE0FFF1FAA95E1F7E20F56
:100C6000F31FE60FF71FE65AFF4FE80FF91FA0E04A
:100C7000B0E0D7CF4F5F5F4F4C175D07ECF2FC0140
:100C8000EE53FE4F108204960E942905DF91CF910A
:100C90000895FC01EE53FE4FAC01465A5F4F049697
:100CA00060810E94B40408950F931F93CF93DF9344
:100CB000FC01EE53FE4F608170E020E030E016C092
:100CC0001D91EF010185011750F031960881101731
:100CD00030F04F5F5F4F4930510591F703C0493005
:100CE000510511F4822F1CC02F5F3F4F2617370785
:100CF000B4F4FC01A081B1811696A901440F551FDF
:100D0000FA0113E0EE0FFF1F1A95E1F7E40FF51F4C
:100D1000E65AFF4FE80FF91F40E050E0D1CF8FEFC8
:100D2000DF91CF911F910F910895EF92FF920F9352
:100D30001F93CF93DF93EC010E945406482F50E09D
:100D40004F3F510509F44EC00DA51EA5980127700F
:100D500030702F5F3F4FF901EE0FFF1FEE0FFF1FA7
:100D6000E20FF31FEC0FFD1F208130E04217530705
:100D700031F4FE01E75AFF4F9081992371F50F5F1F
:100D80001F4F1EA70DA70770107098012F5F3F4FD0
:100D9000F901EE0FFF1FEE0FFF1FE20FF31FEC0F25
:100DA000FD1F8083EA80FB800E948A0BF801EE0F12
:100DB000FF1FEE0FFF1FE00FF11FEC0FFD1FD7010C
:100DC0002D913D914D915C911397621B730B840B98
:100DD000950B6683778380879187C75ADF4F81E0C1
:100DE00088832DC00A811B810E948A0BF801208113
:100DF000318142815381621B730B840B950B2DA5AE
:100E00003EA527703070F901EE0FFF1FEE0FFF1F98
:100E1000E20FF31FEC0FFD1F2681378140855185BE
:100E2000621B730B840B950B6139F1E07F07F0E0D7
:100E30008F07F0E09F0718F0C75ADF4F1882DF9145
:100E4000CF911F910F91FF90EF900895CF93DF9373
:100E5000BC01EC01CC59DF4F488159818FE495E00A
:100E60000E94E10F19821882DF91CF910895EF92CD
:100E7000FF920F931F93CF93DF93EC017B011F82AF
:100E80001E8200E010E008C08FE495E00E94880F09
:100E90009F838E830F5F1F4F0E151F05ACF38E814E
:100EA0009F818830910509F445C0893091055CF433
:100EB0008530910591F187309105B1F1843091052C
:100EC00009F04EC00CC08A30910509F442C08A3046
:100ED0009105D4F18B30910509F042C03FC0E9E0A3
:100EE000EE2EF12CEC0EFD1E00E010E088819981C1
:100EF0000E949F05F701DC01A00FB11F85E00D9056
:100F000001928150E1F70B5F1F4F85E090E0E80E02
:100F1000F91E0832110551F723C082E391E00E94C7
:100F2000210181E088871CC082E391E00E94450195
:100F3000188616C00C80DD81C02D0E948A0B688344
:100F400079838A839B830CC0888199810E940606DD
:100F500007C0888199810E94490602C00C94000054
:100F6000DF91CF911F910F91FF90EF900895BC01F9
:100F700084EE93E00E94370708950F931F93CF9359
:100F8000DF9302E311E0C8010E94330185E060E0D5
:100F90000E94700CCFE4D5E0CE0162E070E00E94C8
:100FA0006210CE0166EC7AE00E946A10CE0167EB17
:100FB00077E00E946510C8010E944501DF91CF9142
:100FC0001F910F9108952F923F924F925F926F92CF
:100FD0007F928F929F92AF92BF92CF92DF92EF92C9
:100FE000FF920F931F93DF93CF93CDB7DEB7CD570B
:100FF000D1400FB6F894DEBF0FBECDBFFE01739691
:10100000CF017E2EC358DE4F9883CD57D1409E012D
:1010100029533F4F80E090E0DC0180839183A283DD
:10102000B38384839583A683B78380879187A287C0
:10103000B38784879587A687B787808B918BA28B90
:10104000B38B7496E217F30741F7FE01E953FF4FA4
:101050009E0125583E4F80E090E0DC018083918323
:10106000A283B38384839583A683B7838087918784
:10107000A287B38784879587A687B787808B918B54
:10108000A28BB38B7496E217F30741F785E0682EC5
:1010900004E1402E512C13E1812E912C8C0E9D1ECB
:1010A000B7EC2B2E312C2C0E3D1E82E391E00E94DA
:1010B000330104E110E064E670E080E090E00E941B
:1010C000C00B01501040B9F782E391E00E9421016A
:1010D00006C086EA94E04AE050E00E94510F84E0A6
:1010E00092E06CE271E00E945B0284E092E00E9478
:1010F0008F01BC018932910564F7AAE0CA2EA2E0F3
:10110000DA2E560100E010E0F50161915F01049DC7
:101110007001059DF00C149DF00C1124E80CF91CD5
:1011200070E080E090E00E943713AB01BC01C70182
:101130000E94CA000F5F1F4F0930110529F706C032
:1011400084E092E06CE271E00E945B0284E092E055
:101150000E948F01863091059CF700E010E0F601B7
:1011600061916F01049D7001059DF00C149DF00CC0
:101170001124E20CF31C70E080E090E00E94371331
:10118000AB01BC01C7010E94CA000F5F1F4F0930AD
:10119000110529F76A9409F088CF8E01015E1F4F6F
:1011A000FCE0EF2EF12CE20CF31C1E010894211C34
:1011B000311CCE010A96C558DE4F99838883CB57E0
:1011C000D140472CC358DE4F5880CD57D140E0EC7A
:1011D000F0E04E0E5F1EF801A080B180C280D38087
:1011E000F7016080718082809380C601B501A401FF
:1011F00093010E949A1287FF03C0C601B50102C085
:10120000C401B3010E940B13C558DE4FE881F98178
:10121000CB57D1406193C558DE4FF983E883CB5754
:10122000D140F801A480B580C680D780F7016480E2
:10123000758086809780C601B501A40193010E9444
:10124000E91318161CF4C601B50102C0C401B301AC
:101250000E940B13F10161931F010C5E1F4F84E18B
:1012600090E0E80EF91E0415150509F0B4CF82E3ED
:1012700091E00E94330181E292E0BE01665F7F4F00
:10128000AE014F5F5F4F0E94D30582E391E00E9461
:101290004501C358DE4F0FB6F894DEBF0FBECDBF79
:1012A000CF91DF911F910F91FF90EF90DF90CF9042
:1012B000BF90AF909F908F907F906F905F904F9076
:1012C0003F902F90089584E092E00E94A50181E272
:1012D00092E00E94950680911C02882311F00E94E2
:1012E000E30780917A028823B9F180914E029091B0
:1012F0004F02877090700196FC01EE0FFF1FEE0FFA
:10130000FF1FE80FF91FEF5DFD4F80818F3F21F137
:1013100080FD04C082E391E00E94210180917A0265
:10132000882391F080914E0290914F0287709070C7
:101330000196FC01EE0FFF1FEE0FFF1FE80FF91FD4
:10134000EF5DFD4F808101C08FEF80FF09C082E318
:1013500091E00E943301089582E391E00E944501EB
:101360000895CF93DF930E94E70B0E94BD07C7ED5E
:10137000DDE00E9463092097E1F30E94D70DF9CFC9
:101380009C01FC01EC59FF4F80819181D901A80F8C
:10139000B91F41E04C930196D901A80FB91F6C9376
:1013A000019691838083C90108951F93CF93DF93A2
:1013B0009C01DC01AC59BF4F8D919C911197F901B3
:1013C000E80FF91F14E01083FC013196E901CE0FFC
:1013D000DF1F78833196E901CE0FDF1F68833196D6
:1013E000E20FF31F50834183059611969C938E93D1
:1013F000C901DF91CF911F910895EF92FF920F9352
:101400001F93CF93DF93EC018E819F8183309105F1
:1014100009F451C08430910544F48130910571F094
:101420008230910509F0ABC013C08430910509F4F6
:1014300053C08C30910509F0A2C061C0E881F981E8
:10144000EE53FE4F88E391E060810E94C00993C093
:10145000A881B981FD01E75AFF4F8081882391F06F
:101460009D968D919C919E97877090700196FC013E
:10147000EE0FFF1FEE0FFF1FE80FF91FEA0FFB1F14
:10148000608101C06FEF88E391E00E94C0090C8089
:10149000DD81C02D0E948A0BAB01BC01888199813E
:1014A000AA81BB81481B590B6A0B7B0B88E391E037
:1014B0000E94D50960C000E010E0EA81FB81E00FE6
:1014C000F11F88E391E066810E94C0090F5F1F4F02
:1014D0000930110591F74FC008E088E391E0698574
:1014E0000E94C0094A855B856C857D8588E391E013
:1014F0000E94D50901502596002379F73CC000E0F1
:1015000010E0E881F981DF01AE53BE4F8C91882352
:1015100049F488E391E061E00E94C00988E391E02A
:1015200061E022C090E00197880F991F7C0143E0A1
:10153000EE0CFF1C4A95E1F7E80EF91EEE0DFF1DBB
:10154000E00FF11FE65AFF4F88E391E060810E94AF
:10155000C009E881F981EE0DFF1DE00FF11FED5983
:10156000FF4F88E391E060810E94C0090F5F1F4F29
:101570000930110531F688E391E00E942607DF91DA
:10158000CF911F910F91FF90EF90089584EE93E01B
:101590000E94FD090895AF92BF92CF92DF92EF9221
:1015A000FF920F931F93CF93DF931092220110921B
:1015B0002301109224011092250180E090E0DC01CB
:1015C0008093260190932701A0932801B0932901CD
:1015D00080932A0190932B01A0932C01B0932D01AD
:1015E00010922E0110922F011092300110923101B1
:1015F00082E391E06BE070E04AE050E029E030E007
:101600000E94090110929D0110929C011092030208
:1016100010920202A4E0AA2EA2E0BA2EC50162E056
:1016200070E043E050E024E030E00EE010E0FFE046
:10163000EF2EF12CE5E0CE2ED12C0E945701C1E215
:10164000D2E00EE211E0CE01B501A8010E94320500
:10165000D093E503C093E403B092E703A092E603BE
:101660001093E9030093E8031092EB031092EA034E
:101670001092EC03DF91CF911F910F91FF90EF90AB
:10168000DF90CF90BF90AF9008951F920F920FB64A
:101690000F9211242F933F938F939F93AF93BF93F8
:1016A0008091190490911A04A0911B04B0911C041C
:1016B00030911D04232F2A592D3720F02D570196E4
:1016C000A11DB11D20931D048093190490931A0449
:1016D000A0931B04B0931C048091150490911604F0
:1016E000A0911704B09118040196A11DB11D80931B
:1016F000150490931604A0931704B0931804BF9197
:10170000AF919F918F913F912F910F900FBE0F90AE
:101710001F9018958FB7F8942091190430911A04EE
:1017200040911B0450911C048FBFB901CA01089558
:101730003FB7F8948091150490911604A091170476
:10174000B091180426B5A89B05C02F3F19F001964B
:10175000A11DB11D3FBFBA2FA92F982F8827820F37
:10176000911DA11DB11D9C01AD01220F331F441F0E
:10177000551F280F391F4A1F5B1FB901CA01089561
:10178000EF92FF920F931F93CF93DF937B018C0116
:101790000E94980BEB010FC00E94980B6C1B7D0BF5
:1017A00083E0683E780738F00894E108F108010901
:1017B0001109C851DC4FE114F1040105110561F76D
:1017C000DF91CF911F910F91FF90EF900895789442
:1017D00084B5826084BD84B5816084BD85B5826036
:1017E00085BD85B5816085BDEEE6F0E080818160D4
:1017F0008083E1E8F0E010828081826080838081D4
:1018000081608083E0E8F0E0808181608083E1EBAB
:10181000F0E0808184608083E0EBF0E08081816093
:101820008083EAE7F0E08081846080838081826049
:101830008083808181608083808180688083109232
:10184000C10008958E3008F08E508770909100018D
:101850009295990F990F907C982B90937C00809192
:101860007A00806480937A0080917A0086FDFCCFB4
:101870002091780030917900932F80E030E0282B80
:10188000392BC9010895833071F0843028F48130F8
:10189000A1F0823021F514C08630B1F08730D1F04C
:1018A0008430E9F404C0809180008F7703C0809178
:1018B00080008F7D80938000089584B58F7702C06B
:1018C00084B58F7D84BD08958091B0008F7780931B
:1018D000B00008958091B0008F7D8093B00008958E
:1018E00090E0FC01E656FF4F2491FC01EA57FF4FC0
:1018F000E491EE23C1F0F0E0EE0FFF1FE859FF4F37
:1019000085919491DC01662341F49FB7F8948C9102
:10191000209582238C939FBF08959FB7F8948C9154
:10192000822B8C939FBF08950F931F93DF93CF93C8
:101930000F92CDB7DEB7282F30E0F901E255FF4F07
:101940008491F901E656FF4F14912A573F4FF90150
:1019500004910023D9F0882321F069830E94430C6D
:101960006981E02FF0E0EE0FFF1FEE58FF4F8591E9
:101970009491DC019FB7F894662321F48C91109523
:10198000812302C08C91812B8C939FBF0F90CF91AC
:10199000DF911F910F9108950F931F93282F30E02F
:1019A000F901E255FF4F8491F901E656FF4F04918A
:1019B0002A573F4FF9011491112391F0882311F018
:1019C0000E94430CE12FF0E0EE0FFF1FE458FF4FA1
:1019D00085919491DC018C91802321E030E011F419
:1019E00020E030E0C9011F910F910895FC0184852A
:1019F0009585FC01E05CFF4F208131818E5B9F4F1C
:101A0000FC0180819181281B390B2F733070C90133
:101A10000895FC0184859585FC01E05CFF4F4081C1
:101A20005181FC01EE5BFF4F20813181421753074A
:101A300041F00190F081E02DE80FF91F208130E0A6
:101A400002C02FEF3FEFC9010895FC018485958501
:101A5000FC01E05CFF4F40815181FC01EE5BFF4FD8
:101A6000208131814217530771F0A081B181A80F05
:101A7000B91F2C918081918101968F739070918311
:101A8000808330E002C02FEF3FEFC9010895DC01F1
:101A90001E968D919C911F97FC01E05CFF4F8E5B21
:101AA0009F4F40815181DC012D913C91119742174C
:101AB0005307B9F708951F93FC01162F2685378524
:101AC000D901A05CBF4F8D919C91019660E470E0BC
:101AD0000E94A714D901AE5BBF4F4D915C91119745
:101AE00084179507D1F3D901A05CBF4F0D90BC912D
:101AF000A02DA20FB31F1C93A685B785A05CBF4F76
:101B000011969C938E93A689B7892C9181E090E0E1
:101B1000058C02C0880F991F0A94E2F7282B2C939A
:101B200081E090E01F910895FB01E05CFF4F208170
:101B300031812F5F3F4F2F733070DB01AE5BBF4FA2
:101B40004D915C9111972417350739F0A081B1812F
:101B5000A60FB71F8C9331832083089508951F9299
:101B60000F920FB60F9211242F933F934F935F93D1
:101B70006F937F938F939F93AF93BF93EF93FF9355
:101B80008091C6006EE174E00E94940DFF91EF9188
:101B9000BF91AF919F918F917F916F915F914F9185
:101BA0003F912F910F900FBE0F901F90189586EACE
:101BB00094E00E94F60C009711F00E94AE0D08957B
:101BC0001F920F920FB60F9211242F933F935F93A2
:101BD0006F937F938F939F93AF93BF93EF93FF93F5
:101BE0002091A2043091A3048091A4049091A504B3
:101BF0002817390731F48091C1008F7D8093C1008F
:101C000016C0E091A404F091A504EE59FB4F208189
:101C10008091A4049091A504019660E470E00E9474
:101C2000A7149093A5048093A4042093C600FF9169
:101C3000EF91BF91AF919F918F917F916F915F9144
:101C40003F912F910F900FBE0F901F9018951092FB
:101C5000A9041092A80488EE93E0A0E0B0E080937D
:101C6000AA049093AB04A093AC04B093AD04E8EA4B
:101C7000F4E085E091E0929382938EE194E0958781
:101C8000848782E694E09787868785EC90E0918B45
:101C9000808B84EC90E0938B828B80EC90E0958B32
:101CA000848B81EC90E0978B868B86EC90E0918F13
:101CB000808F84E0828F83E0838F87E0848F85E04C
:101CC000858F81E0868F0895CF92DF92EF92FF9209
:101CD0000F931F93CF93DF936C017B018A01C0E0C8
:101CE000D0E00FC0D7016D917D01D601ED91FC913F
:101CF0000190F081E02DC6010995C80FD91F015050
:101D000010400115110571F7CE01DF91CF911F91A0
:101D10000F91FF90EF90DF90CF900895DB010D9031
:101D20000020E9F7AD0141505040461B570BDC0144
:101D3000ED91FC910280F381E02D09950895DC017D
:101D4000ED91FC910190F081E02D099508950F939C
:101D50001F93CF93DF93EC016DE00E949F0E8C01E7
:101D6000CE016AE00E949F0E080F191FC801DF9183
:101D7000CF911F910F9108958F929F92AF92BF9232
:101D8000CF92DF92EF92FF920F931F93DF93CF9347
:101D9000CDB7DEB7A1970FB6F894DEBF0FBECDBFAB
:101DA0006C01042FE52FCB01122F19A2223008F469
:101DB0001AE021E2E22EF12CEC0EFD1E812E992478
:101DC000AA24BB2403C0022FE32FCA01602F7E2F59
:101DD000A50194010E94BA14129F802D1124081BA2
:101DE0000894E108F1080A3014F4005D01C0095CB0
:101DF000F7010083211531054105510521F7C60181
:101E0000B7010E948E0EA1960FB6F894DEBF0FBEEA
:101E1000CDBFCF91DF911F910F91FF90EF90DF9099
:101E2000CF90BF90AF909F908F900895CF92DF9208
:101E3000EF92FF920F931F93CF93DF93EC017A0100
:101E40008B012115310541F4E881F9810190F08180
:101E5000E02D642F09951AC02A303105A9F477FFC7
:101E600012C06DE20E949F0E6C0144275527BA01F3
:101E70004E195F09600B710BCE012AE00E94BC0E67
:101E8000C80ED91E04C02AE00E94BC0E6C01C60117
:101E9000DF91CF911F910F91FF90EF90DF90CF9046
:101EA00008950F931F93CF93DF93EC019A01CB0119
:101EB000AC01662757FD6095762FCE010E94160F64
:101EC0008C01CE010E94A70E080F191FC801DF91D7
:101ED000CF911F910F910895F999FECF72BD61BD09
:101EE000F89A80B50895F999FECF1FBA72BD61BD09
:101EF00040BD0FB6F894FA9AF99A0FBE0895209152
:101F0000070530E080910605281B3109C9010895B5
:101F10008091060590910705891750F4E82FF0E0AD
:101F2000EA53FB4F208130E08F5F8093060502C0AB
:101F30002FEF3FEFC9010895E09106058091070555
:101F4000E81730F4F0E0EA53FB4F208130E002C0A4
:101F50002FEF3FEFC90108950895CF93DF939C01C0
:101F6000CB01E0914D05F0914E053097D9F050919D
:101F70000605409107055417A8F060E009C0DA0192
:101F8000AA53BB4F420F531FEA0148814C936F5F26
:101F9000462F50E04817590794F310920605809396
:101FA00007050995DF91CF910895E0914B05F091D8
:101FB0004C05309729F01092480510924905099573
:101FC0000895CF92DF92EF92FF920F931F93CF93DA
:101FD000DF936C01CB01EA0120914A052223B1F085
:101FE000E62EF92E00E010E00DC0D7016D917D01C5
:101FF000D601ED91FC910190F081E02DC60109958B
:102000000F5F1F4F0C171D0780F303C0642F0E9442
:10201000A310CE01DF91CF911F910F91FF90EF9010
:10202000DF90CF900895DF93CF930F92CDB7DEB7B7
:10203000698320914A052223D1F02091490520345B
:1020400040F021E030E0FC013383228320E030E0E7
:1020500015C080914805E82FF0E0E85FFA4F9981BC
:1020600090838F5F809348058093490505C0CE011A
:10207000019661E00E94A31021E030E0C9010F90B9
:10208000CF91DF91089510920605109207051092E6
:102090004805109249050E9486100895CF93DF935A
:1020A000EC01862F0E949F1085ED9FE00E94C210D8
:1020B0008DEA9FE00E94BD10CE010E944310DF9187
:1020C000CF9108950E944E10089570934E0560932D
:1020D0004D05089570934C0560934B05089510923B
:1020E00052051092510588EE93E0A0E0B0E0809395
:1020F000530590935405A0935505B093560585E17B
:1021000091E09093500580934F05089510929F059C
:1021100082E161E00E94940C83E161E00E94940CF2
:10212000E9EBF0E080818E7F808380818D7F8083EA
:102130008CE58093B80085E48093BC000895880FF7
:102140008093BA0008956134A0F420919F05243053
:1021500091F46093E405DC01E7EEF5E070E06E0FCA
:102160007F1F02C08D918193E617F707D9F780E0B2
:10217000089581E0089582E008959093E2058093A8
:10218000E10508959093E6058093E5050895882379
:1021900011F085EC01C085E88093BC00089585EDC1
:1021A0008093BC008091BC0084FDFCCF10929F0501
:1021B000089585EC8093BC0010929F0508951F92AE
:1021C0000F920FB60F9211242F933F934F935F936B
:1021D0006F937F938F939F93AF93BF93EF93FF93EF
:1021E0008091B90090E0887F90708036910509F465
:1021F000C2C081369105E4F58832910509F47EC0AC
:1022000089329105C4F48031910509F472C081319D
:10221000910544F4009709F413C18830910509F041
:1022200013C167C08831910509F468C080329105F7
:1022300009F00AC178C08034910509F48AC081345C
:1022400091054CF48033910509F46FC088339105F2
:1022500009F0FAC06EC08035910509F46EC088356A
:10226000910509F47BC08834910509F0EDC0EAC0FE
:102270008839910509F4DAC089399105ECF4883779
:10228000910509F478C0893791054CF48836910599
:1022900009F471C08037910509F0D6C06CC0883848
:1022A000910509F4C3C08039910509F46AC08038EA
:1022B000910509F0C9C065C0803B910509F48EC045
:1022C000813B91054CF4803A910509F46CC0883A41
:1022D000910509F0B9C082C0803C910509F4AAC0FB
:1022E000883C910509F4A6C0883B910509F0ACC073
:1022F0008AC080915B058093BB0013C090915C0500
:1023000080915D05981708F09DC080915C05E82FCD
:10231000F0E0E25AFA4F90819093BB008F5F809378
:102320005C0581E084C080E201C080E380939E056B
:1023300089C088E380939E054EC080915C05909192
:10234000BB00E82FF0E0E25AFA4F90838F5F809352
:102350005C0590915C0580915D0565C080915C0590
:102360009091BB00E82FF0E0E25AFA4F90838F5F24
:1023700080935C0567C083E080939F051092A00561
:10238000D0CF8091A005803408F050C08091A00586
:102390009091BB00E82FF0E0EF55FA4F90838F5FEC
:1023A0008093A005BECF8091A005803430F4E091E9
:1023B000A005F0E0EF55FA4F10820E94CF10609117
:1023C000A005E091E105F091E20581EA95E070E079
:1023D00009951092A0050E94D91036C084E0809320
:1023E0009F051092E3051092E405E091E505F09158
:1023F000E60509958091E405882329F481E080931E
:10240000E4051092E7058091E305E82FF0E0E9513B
:10241000FA4F90819093BB008F5F8093E30590917A
:10242000E3058091E405981708F47BCF80E00E94D3
:10243000C7100AC081E00E94C71010929F0504C017
:1024400010929E050E94CF10FF91EF91BF91AF9126
:102450009F918F917F916F915F914F913F912F91BC
:102460000F900FBE0F901F9018955058BB27AA27AA
:102470000ED075C166D130F06BD120F031F49F3FA2
:1024800011F41EF45BC10EF4E095E7FB51C1E92F96
:1024900077D180F3BA17620773078407950718F09E
:1024A00071F49EF58FC10EF4E0950B2EBA2FA02D7E
:1024B0000B01B90190010C01CA01A0011124FF27F1
:1024C000591B99F0593F50F4503E68F11A16F040EC
:1024D000A22F232F342F4427585FF3CF46953795EB
:1024E0002795A795F0405395C9F77EF41F16BA0BB0
:1024F000620B730B840BBAF09150A1F0FF0FBB1F5E
:10250000661F771F881FC2F70EC0BA0F621F731FA6
:10251000841F48F4879577956795B795F7959E3F03
:1025200008F0B3CF9395880F08F09927EE0F979591
:1025300087950895D9D008F481E008950CD00FC193
:1025400007D140F0FED030F021F45F3F19F0F0C029
:10255000511139C1F3C014D198F39923C9F355230C
:10256000B1F3951B550BBB27AA2762177307840786
:1025700038F09F5F5F4F220F331F441FAA1FA9F33C
:1025800033D00E2E3AF0E0E830D091505040E6952E
:10259000001CCAF729D0FE2F27D0660F771F881F8F
:1025A000BB1F261737074807AB07B0E809F0BB0B7E
:1025B000802DBF01FF2793585F4F2AF09E3F5105A2
:1025C00068F0B6C000C15F3FECF3983EDCF386953F
:1025D00077956795B795F7959F5FC9F7880F911D18
:1025E0009695879597F90895E1E0660F771F881F04
:1025F000BB1F621773078407BA0720F0621B730BB7
:10260000840BBA0BEE1F88F7E095089504D0689408
:10261000B111D9C00895BCD088F09F5790F0B92F60
:102620009927B751A0F0D1F0660F771F881F991F27
:102630001AF0BA95C9F712C0B13081F0C3D0B1E039
:102640000895C0C0672F782F8827B85F39F0B93F49
:10265000CCF3869577956795B395D9F73EF4909529
:102660008095709561957F4F8F4F9F4F0895E894A7
:1026700009C097FB3EF490958095709561957F4FCA
:102680008F4F9F4F9923A9F0F92F96E9BB27939578
:10269000F695879577956795B795F111F8CFFAF488
:1026A000BB0F11F460FF1BC06F5F7F4F8F4F9F4FB9
:1026B00016C0882311F096E911C0772321F09EE817
:1026C000872F762F05C0662371F096E8862F70E07D
:1026D00060E02AF09A95660F771F881FDAF7880F57
:1026E0009695879597F90895990F0008550FAA0BAD
:1026F000E0E8FEEF16161706E807F907C0F0121615
:102700001306E407F50798F0621B730B840B950B17
:1027100039F40A2661F0232B242B252B21F408956C
:102720000A2609F4A140A6958FEF811D811D089509
:1027300097F99F6780E870E060E008959FEF80EC74
:10274000089500240A941616170618060906089517
:1027500000240A9412161306140605060895092E7D
:102760000394000C11F4882352F0BB0F40F4BF2BEC
:1027700011F460FF04C06F5F7F4F8F4F9F4F08952C
:1027800057FD9058440F551F59F05F3F71F0479522
:10279000880F97FB991F61F09F3F79F08795089507
:1027A000121613061406551FF2CF4695F1DF08C026
:1027B000161617061806991FF1CF86957105610543
:1027C00008940895E894BB2766277727CB0197F9EB
:1027D00008958ADF08F48FEF08950BD0C0CFB1DFE2
:1027E00028F0B6DF18F0952309F0A2CFA7CF112467
:1027F000EACFC6DFA0F3959FD1F3950F50E0551FA8
:10280000629FF001729FBB27F00DB11D639FAA2745
:10281000F00DB11DAA1F649F6627B00DA11D661F94
:10282000829F2227B00DA11D621F739FB00DA11DB5
:10283000621F839FA00D611D221F749F3327A00D6F
:10284000611D231F849F600D211D822F762F6A2F0B
:1028500011249F5750408AF0E1F088234AF0EE0F90
:10286000FF1FBB1F661F771F881F91505040A9F79D
:102870009E3F510570F05CCFA6CF5F3FECF3983ED2
:10288000DCF3869577956795B795F795E7959F5F04
:10289000C1F7FE2B880F911D9695879597F908959E
:1028A00011F40EF44BCF3EC073DFD0F39923D9F36C
:1028B000CEF39F57550B87FF43D00024A0E640EA94
:1028C000900180585695979528F4805C660F771F85
:1028D000881F20F026173707480730F4621B730B58
:1028E000840B202931294A2BA6951794079420257B
:1028F00031254A2758F7660F771F881F20F02617C3
:102900003707480730F4620B730B840B200D311D21
:10291000411DA09581F7B901842F9158880F969594
:10292000879508959F3F31F0915020F487957795D2
:102930006795B795880F911D9695879597F9089596
:1029400091505040660F771F881FD2F7089597FB6C
:10295000092E07260AD077FD04D02ED006D00020FD
:102960001AF4709561957F4F0895F6F790958195CB
:102970009F4F0895A1E21A2EAA1BBB1BFD010DC09B
:10298000AA1FBB1FEE1FFF1FA217B307E407F5071F
:1029900020F0A21BB30BE40BF50B661F771F881FFB
:1029A000991F1A9469F760957095809590959B0191
:1029B000AC01BD01CF010895AA1BBB1B51E107C0AB
:1029C000AA1FBB1FA617B70710F0A61BB70B881FBF
:1029D000991F5A95A9F780959095BC01CD0108954E
:1029E000EE0FFF1F0590F491E02D0994F894FFCFAE
:1029F00001000000005B0D640EF60C250D090D476B
:102A00000D000000001310E10F7F0F880F9C0FAC2A
:022A10000F00B5
:00000001FF
