:100000000C9464000C948C000C948C000C948C0068
:100010000C948C000C948C000C948C000C948C0030
:100020000C948C000C948C000C948C000C948C0020
:100030000C948C000C948C000C948C000C948C0010
:100040000C9439080C948C000C94570A0C94880A70
:100050000C948C000C948C000C948C000C948C00F0
:100060000C94060E0C948C00000000002400270065
:100070002A0000000000250028002B0000000000DE
:1000800023002600290004040404040404040202DA
:100090000202020203030303030301020408102007
:1000A0004080010204081020010204081020000012
:1000B0000007000201000003040600000000000029
:1000C0000000BF074D0B960D11241FBECFEFD8E0E7
:1000D000DEBFCDBF11E0A0E0B1E0ECE2F2E202C091
:1000E00005900D92A437B107D9F717E0A4E7B1E066
:1000F00001C01D92A337B107E1F710E0C8ECD0E0D2
:1001000004C02297FE010E941011C23CD107C9F71A
:100110000E94AB060C9414110C940000CF93DF9353
:10012000EC01862F688379835B834A833D832C832C
:1001300061E00E9418098C8161E00E9418098A819F
:1001400061E00E941809DF91CF910895CF93DF936A
:10015000EC018C8160E00E943C098A8160E00E9491
:100160003C09888161E00E943C09DF91CF910895AC
:10017000CF93DF93EC018C8160E00E943C098A817F
:1001800061E00E943C09888160E00E943C09DF91A7
:10019000CF910895CF93DF93EC018C8161E00E94B1
:1001A0003C098A8160E00E943C09888160E00E94ED
:1001B0003C09DF91CF910895CF92DF92EF92FF92A9
:1001C0000F931F93CF93DF93EC01862F688379837E
:1001D0005B834A833D832C831F830E83F986E886E5
:1001E000DB86CA86FE013C9629E030E0119211922E
:1001F00021503040D9F7FE017E9629E030E011927F
:10020000119221503040D9F718AA20E030E0A9011E
:1002100029AB3AAB4BAB5CAB61E00E9418098A8119
:1002200061E00E9418098C8161E00E9418098A85AA
:1002300060E00E941809DF91CF911F910F91FF900C
:10024000EF90DF90CF900895FC013C9689E090E01C
:1002500021913191318B208B0197D1F70895AF9285
:10026000BF92CF92DF92EF92FF920F931F93CF93A3
:10027000DF93EC010E942401888160E00E943C0928
:100280008A8160E00E943C098C8160E00E943C0908
:100290008E810E94CA089D878C87888161E00E94B8
:1002A0003C098E810E94CA089F878E878A8161E0FF
:1002B0000E943C098E810E94CA089B8B8A8B888190
:1002C00060E00E943C098E810E94CA08998B888B4D
:1002D0008C8161E00E943C098E810E94CA08998F3E
:1002E000888F888161E00E943C098E810E94CA0843
:1002F0009B8F8A8F8A8160E00E943C098E810E94D8
:10030000CA089F8B8E8B888160E00E943C098E8199
:100310000E94CA089D8B8C8B88850E94CA089D8F7D
:100320008C8F8A850E94740921E0009709F420E0EF
:1003300028AB8E01045F1F4FFF24EE24DD24CC2464
:10034000AA24BB24F8010E5F1F4F62897389808144
:100350009181681B790B882777FD8095982F0E94E3
:10036000D60F9B01AC010E9462109B01AC01D7012A
:10037000F6016B2F7E2D8F2F9C2D0E94700FF62E75
:10038000E72ED82EC92E0894A11CB11C89E0A8160E
:10039000B104C1F6A7019601852F942FA32FB22F88
:1003A00089AB9AABABABBCABDF91CF911F910F91F7
:1003B000FF90EF90DF90CF90BF90AF9008952F9275
:1003C0003F925F926F927F928F929F92AF92BF9275
:1003D000CF92DF92EF92FF920F931F93DF93CF9311
:1003E00000D000D0CDB7DEB73B01FC016081718148
:1003F00082E797E04B835C830E945C0FF30180836C
:1004000011824B815C81C42ED52E6AE0A62EB12CC0
:100410008824992443C082E797E0B8012B833C836A
:100420000E945C0F582EB8016F5F7F4F82E797E004
:100430000E945C0F8A83198289819A81850D911DA2
:100440002B813C81F901819391939F010E5F1F4F96
:100450000215130501F70894E11CF11CF2E0EF16F8
:10046000F10499F0C701880F991F9C0143E0220F06
:10047000331F4A95E1F7280F391F2C0D3D1D82E1EE
:10048000282E312C200E311EC6CF0894811C911CC1
:1004900084E290E0A80EB91EC80ED91EF301808137
:1004A00091818816990624F48501EE24FF24DACF81
:1004B0000F900F900F900F90CF91DF911F910F91A0
:1004C000FF90EF90DF90CF90BF90AF909F908F9074
:1004D0007F906F905F903F902F9008952F923F9262
:1004E0004F925F926F927F928F929F92AF92BF9244
:1004F000CF92DF92EF92FF920F931F93DF93CF93F0
:1005000000D0CDB7DEB72B01042FFC0160817181D3
:1005100082E797E0442D59830E94630F5981C02ED2
:10052000D52EBAE0AB2EB12C8824992447C03901CE
:1005300082E797E0B801F901408129833A830E945C
:10054000630F29813A812E5F3F4FB8016F5F7F4F64
:10055000F30140815181452F550F550B82E797E0FC
:1005600029833A830E94630F0E5F1F4F29813A81CE
:1005700002151305E1F60894E11CF11CF2E0EF16F8
:10058000F10499F0C701880F991F9C01E3E0220F45
:10059000331FEA95E1F7280F391F2C0D3D1D72E13D
:1005A000272E312C200E311EC2CF0894811C911CA5
:1005B00084E290E0A80EB91EC80ED91E84149504DA
:1005C00024F48501EE24FF24DDCF0F900F90CF910E
:1005D000DF911F910F91FF90EF90DF90CF90BF9030
:1005E000AF909F908F907F906F905F904F903F90D3
:1005F0002F900895FC016081718182E797E040E0CF
:100600000E94630F0895CF93DF93FC017183608391
:100610005383428389E090E09583848317AA16AAC6
:10062000DF01A859BF4F1D921C92DF01A659BF4F91
:100630001C92DF01A55CBC4F1D921C92EF01DF01F3
:10064000D89688E090E01F821E82188619861A8646
:100650001B8611961C921E9212961D921D921D923F
:100660001C921597019726961696009761F780E0E1
:1006700090E064E270E023C01D921D924150504012
:10068000D9F72F5F3F4F22303105A9F0A901440F60
:10069000551FDA01AA0FBB1FAA0FBB1FAA0FBB1F52
:1006A000A40FB51FAC0FBD1FA559BF4FAE0FBF1F85
:1006B00049E050E0E1CF01968431910551F020E00E
:1006C00030E0869FE001879FD00D969FD00D1124CA
:1006D000DDCFBF01655C7C4FAF0145595F4FCF0156
:1006E00004960E94DF01DF91CF910895EF92FF926F
:1006F0000F931F93CF93DF93EC0180912C01909186
:100700002D01019690932D0180932C01FE01E65955
:10071000FF4F009709F442C021E020830EA91FA9D2
:100720000F5F1F4FF801EE0FFF1FE00FF11FEE0FDD
:10073000FF1FEC0FFD1F208131818217930779F194
:100740001FAB0EAB0770107098012F5F3F4FF90180
:10075000EE0FFF1FE20FF31FEE0FFF1FEC0FFD1F49
:1007600091838083EA80FB800E948108F801EE0F6C
:10077000FF1FE00FF11FEE0FFF1FEC0FFD1FD70152
:100780002D913D914D915C911397621B730B840BDE
:10079000950B608771878287938701C01082DF91F4
:1007A000CF911F910F91FF90EF900895CF93DF931A
:1007B000FC0146A957A9E859FF4F20813181421712
:1007C000530709F1518340839A01285F3F4FDC01B1
:1007D000D896B901677070706F5F7F4FFB01EE0FA5
:1007E000FF1FE60FF71FEE0FFF1FED01E80FF91FC8
:1007F00066E0019009926150E1F721503040169671
:100800002417350731F79C01285C3F4FC901DF9160
:10081000CF910895EF92FF920F931F93CF93DF93A1
:10082000FC01E55CFC4FE080F180262F372FB901F9
:1008300024E230E0E29EF001E39EF00DF29EF00D26
:100840001124E559FF4FE80FF91FEA0120E030E0DD
:10085000DB014D915D91BD014193519349915991B6
:10086000518B408B2F5F3F4F2930310589F7855CD5
:100870009C4FD7011196FC01B183A083DF91CF91EA
:100880001F910F91FF90EF9008950F931F93CF93B7
:10089000DF93FC01E55CFC4FA081B18120E030E0FA
:1008A00004E210E02BC01192119261507040D9F710
:1008B0004F5F5F4F4230510551F41EC040E050E0A1
:1008C000209FE001219FD00D309FD00D1124BA014F
:1008D000660F771FFB01EE0FFF1FEE0FFF1FEE0FDE
:1008E000FF1FE60FF71FEC0FFD1FE559FF4FE80F45
:1008F000F91F69E070E0D7CF2F5F3F4F2A173B0702
:10090000ECF2FC01E55CFC4F1182108204960E941F
:10091000FA02DF91CF911F910F910895FC01E55CE0
:10092000FC4F60817181AC0145595F4F04960E9474
:100930006E0208954F925F926F927F928F929F9274
:10094000AF92BF92CF92DF92EF92FF920F931F93DD
:10095000CF93DF935C0182E996E060E071E00E9452
:10096000C50BE50108E010E06E817F8182E996E029
:100970004AE050E00E949C0C82E996E06BE071E056
:100980000E94C50B488559856A857B8582E996E07A
:100990002AE030E00E94520C82E996E06EE071E0BD
:1009A0000E94C50B01501040269601151105E1F675
:1009B00082E996E062E171E00E94E50B82E996E04F
:1009C00064E171E00E94E50BEE24FF245BE3652EF9
:1009D00053E0752E6A0C7B1C44E2442E512C45C01A
:1009E0006991799182E996E04AE050E00E949C0C7E
:1009F00082E996E062E171E00E94C50B0894C108AB
:100A0000D108C114D10461F782E996E06DE171E08B
:100A10000E94C50B0F5F1F4F0230110551F41EC01D
:100A200000E010E0E49C4001E59C900CF49C900CEC
:100A30001124C801880F991FEC0123E0CC0FDD1FA2
:100A40002A95E1F7C80FD91FC80DD91DC559DF4F29
:100A5000CA0DDB1DB9E0CB2ED12CC2CF82E996E0C6
:100A60000E94D00B0894E11CF11CD3018D919C9144
:100A70001197E816F906A4F282E996E063E271E0C4
:100A80000E94E50BC0E0D0E0D501ED91FC91CE01D4
:100A90000696880F991FE80FF91F6081718182E91E
:100AA00096E04AE050E00E949C0C82E996E062E108
:100AB00071E00E94C50B2196C930D10529F782E962
:100AC00096E00E94D00BDF91CF911F910F91FF9084
:100AD000EF90DF90CF90BF90AF909F908F907F90DE
:100AE0006F905F904F900895CF93DF93BC01EC011E
:100AF000CC59DF4F488159818AEF96E00E94080D5A
:100B000019821882DF91CF910895EF92FF920F938F
:100B10001F93CF93DF93EC017B011F821E8200E0C5
:100B200010E008C08AEF96E00E94AF0C9F838E838E
:100B30000F5F1F4F0E151F05ACF38E819F8187300D
:100B4000910509F463C08830910564F485309105FE
:100B5000C1F1863091050CF052C08430910509F046
:100B600071C011C08930910509F460C089309105C8
:100B70000CF452C08A30910509F45DC08B309105A8
:100B800009F060C05DC079E0E72EF12CEC0EFD1E8F
:100B900000E010E0888199810E94D603F701DC0112
:100BA000A00FB11F86E00D9001928150E1F70A5F1E
:100BB0001F4F86E090E0E80EF91E0831110551F74D
:100BC00041C061E2E62EF12CEC0EFD1E08E110E0C2
:100BD000888199810E94D603F701DC01A00FB11F23
:100BE00086E00D9001928150E1F70A5F1F4F86E089
:100BF00090E0E80EF91E0033110551F723C084E898
:100C000091E00E94A60081E088871CC084E891E002
:100C10000E94CA00188616C00C80DD81C02D0E947B
:100C20008108688379838A839B830CC0888199813A
:100C30000E94450407C0888199810E948E0402C0E9
:100C40000C940000DF91CF911F910F91FF90EF90D6
:100C50000895BC0188EC95E00E9485050895DF9316
:100C6000CF93CDB7DEB7A4970FB6F894DEBF0FBE13
:100C7000CDBF84E891E00E94B80085E060E00E946A
:100C8000180982E996E040E051EE60E070E00E94D1
:100C9000CF0A8BE892E00E948E048AEF96E062E031
:100CA00070E00E94890D8AEF96E06AEB77E00E947F
:100CB000910D8AEF96E069E276E00E948C0DDE01EC
:100CC0001196E1E4F1E082E101900D928150E1F7AB
:100CD000DE015396EFE2F1E082E101900D92815046
:100CE000E1F78BE892E0BE016F5F7F4FAE014D5E92
:100CF0005F4F0E940A0484E891E00E94CA00A49613
:100D00000FB6F894DEBF0FBECDBFCF91DF9108952F
:100D100086E592E00E942F0180918602882321F0CF
:100D20008BE892E00E9476038091720290917302A8
:100D300023E0893E920774F08BE892E00E949A04C7
:100D40000E948108609380017093810180938201E9
:100D5000909383010895CF93DF930E948F080E94A0
:100D60002F06CFE7DAE00E9488062097E1F30E9481
:100D70007F0AF9CF9C01FC01EC59FF4F80819181E2
:100D8000D901A80FB91F41E04C930196D901A80FD2
:100D9000B91F6C93019691838083C90108951F93B5
:100DA000CF93DF939C01DC01AC59BF4F8D919C9197
:100DB0001197F901E80FF91F14E01083FC01319637
:100DC000E901CE0FDF1F78833196E901CE0FDF1FD7
:100DD00068833196E20FF31F508341830596119685
:100DE0009C938E93C901DF91CF911F9108959C012F
:100DF000FC01EC59FF4F80819181D901A80FB91FE7
:100E000042E04C930196D901A80FB91F7C9301963B
:100E1000D901A80FB91F6C93019691838083C901F2
:100E200008950F931F93CF93DF93EC018E819F81E1
:100E30008330910509F453C08430910544F4813026
:100E4000910571F08230910509F08FC013C0843094
:100E5000910509F45AC08530910509F086C06BC030
:100E6000E881F981E55CFC4F8AE891E060810E94AD
:100E7000BA0677C0A881B981FD01E659FF4F80818C
:100E8000882399F0D6968D919C91D7978770907012
:100E90000196FC01EE0FFF1FE80FF91FEE0FFF1F79
:100EA000EA0FFB1F6081718102C060E070E08AE898
:100EB00091E00E94BA060C80DD81C02D0E9481085D
:100EC000AB01BC0188819981AA81BB81481B590B68
:100ED0006A0B7B0B8AE891E00E94CF0642C000E0DB
:100EE00010E0EA81FB81C8010696880F991FE80F80
:100EF000F91F608171818AE891E00E94F7060F5F17
:100F00001F4F0930110569F72CC004E010E08AE892
:100F100091E069850E94BA064B855C856D857E856A
:100F20008AE891E00E94CF060150104026960115F4
:100F3000110569F716C0A19604E010E08AE891E077
:100F400068810E94BA064A815B816C817D818AE852
:100F500091E00E94CF060150104026960115110520
:100F600069F78AE891E00E947405DF91CF911F91A3
:100F70000F91089588EC95E00E9411070895AF92B3
:100F8000BF92CF92DF92EF92FF920F931F93CF9376
:100F9000DF931092740110927501109276011092F5
:100FA000770180E090E0DC018093780190937901F3
:100FB000A0937A01B0937B0180937C0190937D0193
:100FC000A0937E01B0937F01109280011092810165
:100FD000109282011092830184E891E064E070E055
:100FE00043E050E022E030E00E948E001092EF01DA
:100FF0001092EE011092550210925402A6E5AA2E0C
:10100000A2E0BA2EC5016BE070E04AE050E029E0B2
:1010100030E00EE010E0FFE0EF2EF12CE5E0CE2E08
:10102000D12C0E94DC00CBE8D2E000E811E0CE0138
:10103000B501A8010E940303D093C905C093C80558
:10104000B092CB05A092CA051093CD050093CC05B4
:101050001092CF051092CE051092D005DF91CF915E
:101060001F910F91FF90EF90DF90CF90BF90AF90C6
:1010700008951F920F920FB60F9211242F933F9352
:101080008F939F93AF93BF9380910506909106062F
:10109000A0910706B0910806309109060196A11D9E
:1010A000B11D232F2D5F2D3720F02D570196A11D47
:1010B000B11D209309068093050690930606A09320
:1010C0000706B09308068091010690910206A09150
:1010D0000306B09104060196A11DB11D809301067F
:1010E00090930206A0930306B0930406BF91AF91BC
:1010F0009F918F913F912F910F900FBE0F901F9056
:1011000018958FB7F8942091050630910606409106
:101110000706509108068FBFB901CA010895789457
:1011200084B5826084BD84B5816084BD85B58260EC
:1011300085BD85B5816085BDEEE6F0E0808181608A
:101140008083E1E8F0E0108280818260808380818A
:1011500081608083E0E8F0E0808181608083E1EB62
:10116000F0E0808184608083E0EBF0E0808181604A
:101170008083EAE7F0E08081846080838081826000
:1011800080838081816080838081806880831092E9
:10119000C10008958E3008F08E50877090912E0116
:1011A0009295990F990F907C982B90937C00809149
:1011B0007A00806480937A0080917A0086FDFCCF6B
:1011C0002091780030917900932F80E030E0282B37
:1011D000392BC9010895833071F0843028F48130AF
:1011E000A1F0823021F514C08630B1F08730D1F003
:1011F0008430E9F404C0809180008F7703C080912F
:1012000080008F7D80938000089584B58F7702C021
:1012100084B58F7D84BD08958091B0008F778093D1
:10122000B00008958091B0008F7D8093B000089544
:1012300090E0FC01E656FF4F2491FC01EA57FF4F76
:10124000E491EE23C1F0F0E0EE0FFF1FE859FF4FED
:1012500085919491DC01662341F49FB7F8948C91B9
:10126000209582238C939FBF08959FB7F8948C910B
:10127000822B8C939FBF08950F931F93DF93CF937F
:101280000F92CDB7DEB7282F30E0F901E255FF4FBE
:101290008491F901E656FF4F14912A573F4FF90107
:1012A00004910023D9F0882321F069830E94EB0880
:1012B0006981E02FF0E0EE0FFF1FEE58FF4F8591A0
:1012C0009491DC019FB7F894662321F48C911095DA
:1012D000812302C08C91812B8C939FBF0F90CF9163
:1012E000DF911F910F9108950F931F93282F30E0E6
:1012F000F901E255FF4F8491F901E656FF4F049141
:101300002A573F4FF9011491112391F0882311F0CE
:101310000E94EB08E12FF0E0EE0FFF1FE458FF4FB3
:1013200085919491DC018C91802321E030E011F4CF
:1013300020E030E0C9011F910F910895FC018485E0
:101340009585FC01E05CFF4F208131818E5B9F4FD2
:10135000FC0180819181281B390B2F733070C901EA
:101360000895FC0184859585FC01E05CFF4F408178
:101370005181FC01EE5BFF4F208131814217530701
:1013800041F00190F081E02DE80FF91F208130E05D
:1013900002C02FEF3FEFC9010895FC0184859585B8
:1013A000FC01E05CFF4F40815181FC01EE5BFF4F8F
:1013B000208131814217530771F0A081B181A80FBC
:1013C000B91F2C918081918101968F7390709183C8
:1013D000808330E002C02FEF3FEFC9010895DC01A8
:1013E0001E968D919C911F97FC01E05CFF4F8E5BD8
:1013F0009F4F40815181DC012D913C911197421703
:101400005307B9F708951F93FC01162F26853785DA
:10141000D901A05CBF4F8D919C91019660E470E072
:101420000E94C510D901AE5BBF4F4D915C911197E1
:1014300084179507D1F3D901A05CBF4F0D90BC91E3
:10144000A02DA20FB31F1C93A685B785A05CBF4F2C
:1014500011969C938E93A689B7892C9181E090E098
:10146000058C02C0880F991F0A94E2F7282B2C9351
:1014700081E090E01F910895FB01E05CFF4F208127
:1014800031812F5F3F4F2F733070DB01AE5BBF4F59
:101490004D915C9111972417350739F0A081B181E6
:1014A000A60FB71F8C9331832083089508951F9250
:1014B0000F920FB60F9211242F933F934F935F9388
:1014C0006F937F938F939F93AF93BF93EF93FF930C
:1014D0008091C6006AE076E00E943C0AFF91EF919D
:1014E000BF91AF919F918F917F916F915F914F913C
:1014F0003F912F910F900FBE0F901F90189582E98A
:1015000096E00E949E09009711F00E94560A0895E5
:101510001F920F920FB60F9211242F933F935F9358
:101520006F937F938F939F93AF93BF93EF93FF93AB
:1015300020918E0630918F068091900690919106B1
:101540002817390731F48091C1008F7D8093C10045
:1015500016C0E0919006F0919106E25BF94F208170
:101560008091900690919106019660E470E00E944F
:10157000C51090939106809390062093C600FF912A
:10158000EF91BF91AF919F918F917F916F915F91FB
:101590003F912F910F900FBE0F901F901895DF92E3
:1015A000EF92FF920F931F93CF93DF93EC017A0199
:1015B0008B01DD24D394403081EE580780E068072A
:1015C00080E0780749F4DD24EC89FD89108260E829
:1015D00074E88EE190E00FC0EC89FD8981E090E035
:1015E0000E8C02C0880F991F0A94E2F7808360E096
:1015F00079E08DE390E0A80197010E94D810215076
:10160000304040405040569547953795279580E1AA
:101610002030380710F0DD20B1F6E889F9893083F1
:10162000EA89FB892083EE89FF89408181E090E08F
:101630009C010A8C02C0220F331F0A94E2F7422B4E
:101640004083EE89FF8940819C010B8C02C0220FF0
:10165000331F0A94E2F7422B4083EE89FF894081D1
:101660009C010C8C02C0220F331F0A94E2F7422B1C
:101670004083EE89FF8920810D8C02C0880F991F5D
:101680000A94E2F7809582238083DF91CF911F91A6
:101690000F91FF90EF90DF900895109295061092B1
:1016A000940688EE93E0A0E0B0E0809396069093D5
:1016B0009706A0939806B0939906E4E9F6E087E5CB
:1016C00091E0929382938AE096E0958784878EE4F6
:1016D00096E09787868785EC90E0918B808B84ECF1
:1016E00090E0938B828B80EC90E0958B848B81ECE7
:1016F00090E0978B868B86EC90E0918F808F84E0D2
:10170000828F83E0838F87E0848F85E0858F81E0FF
:10171000868F0895CF92DF92EF92FF920F931F93DF
:10172000CF93DF936C017B018A01C0E0D0E00FC052
:10173000D7016D917D01D601ED91FC910190F08171
:10174000E02DC6010995C80FD91F015010400115A1
:10175000110571F7CE01DF91CF911F910F91FF908D
:10176000EF90DF90CF900895DB010D900020E9F716
:10177000AD0141505040461B570BDC01ED91FC91EF
:101780000280F381E02D099508950E94B40B08951D
:10179000DC01ED91FC910190F081E02D0995089517
:1017A0000F931F93CF93DF93EC016DE00E94C80B62
:1017B0008C01CE016AE00E94C80B080F191FC801F6
:1017C000DF91CF911F910F9108950F931F93CF93A6
:1017D000DF93EC010E94B40B8C01CE010E94D00B70
:1017E000080F191FC801DF91CF911F910F91089524
:1017F0008F929F92AF92BF92CF92DF92EF92FF9221
:101800000F931F93DF93CF93CDB7DEB7A1970FB69A
:10181000F894DEBF0FBECDBF6C01042FE52FCB01C6
:10182000122F19A2223008F41AE021E2E22EF12C44
:10183000EC0EFD1E812E9924AA24BB2403C0022F86
:10184000E32FCA01602F7E2FA50194010E94D810BA
:10185000129F802D1124081B0894E108F1080A301A
:1018600014F4005D01C0095CF70100832115310506
:101870004105510521F7C601B7010E94B40BA1969D
:101880000FB6F894DEBF0FBECDBFCF91DF911F9191
:101890000F91FF90EF90DF90CF90BF90AF909F900F
:1018A0008F9008952115310549F4DC01ED91FC91EB
:1018B0000190F081E02D642F099508950E94F80BA6
:1018C0000895CF92DF92EF92FF920F931F93CF93E1
:1018D000DF93EC017A018B012115310541F4E88198
:1018E000F9810190F081E02D642F09951AC02A300A
:1018F0003105A9F477FF12C06DE20E94C80B6C019C
:1019000044275527BA014E195F09600B710BCE01B0
:101910002AE00E94F80BC80ED91E04C02AE00E94DB
:10192000F80B6C01C601DF91CF911F910F91FF90D1
:10193000EF90DF90CF9008959A01FB01AF016627E9
:1019400057FD6095762F0E94610C08952091D20674
:1019500030E08091D106281B3109C901089580919A
:10196000D1069091D206891750F4E82FF0E0EF5499
:10197000F94F208130E08F5F8093D10602C02FEFB6
:101980003FEFC9010895E091D1068091D206E81792
:1019900030F4F0E0EF54F94F208130E002C02FEF37
:1019A0003FEFC90108950895CF93DF939C01CB01C8
:1019B000E091F806F091F9063097D9F05091D106F0
:1019C0004091D2065417A8F060E009C0DA01AF5484
:1019D000B94F420F531FEA0148814C936F5F462F66
:1019E00050E04817590794F31092D1068093D2061D
:1019F0000995DF91CF910895E091F606F091F706F1
:101A0000309729F01092F3061092F4060995089584
:101A1000CF92DF92EF92FF920F931F93CF93DF93BA
:101A20006C01CB01EA012091F5062223B1F0E62EEC
:101A3000F92E00E010E00DC0D7016D917D01D601B7
:101A4000ED91FC910190F081E02DC60109950F5FA9
:101A50001F4F0C171D0780F303C0642F0E94CA0D8F
:101A6000CE01DF91CF911F910F91FF90EF90DF900A
:101A7000CF900895DF93CF930F92CDB7DEB76983F0
:101A80002091F5062223D1F02091F406203240F077
:101A900021E030E0FC013383228320E030E015C0F8
:101AA0008091F306E82FF0E0ED52F94F9981908391
:101AB0008F5F8093F3068093F40605C0CE010196F4
:101AC00061E00E94CA0D21E030E0C9010F90CF9182
:101AD000DF9108951092D1061092D2061092F3066B
:101AE0001092F4060E94AD0D0895CF93DF93EC01A0
:101AF000862F0E94C60D8CEF9CE00E94E90D84EDBC
:101B00009CE00E94E40DCE010E946A0DDF91CF910E
:101B100008950E94750D08957093F9066093F80674
:101B200008957093F7066093F60608951092FD06E7
:101B30001092FC0688EE93E0A0E0B0E08093FE06F1
:101B40009093FF06A0930007B093010787E691E00A
:101B50009093FB068093FA06089510922A0782E17B
:101B600061E00E943C0983E161E00E943C09E9EBED
:101B7000F0E080818E7F808380818D7F808388E408
:101B80008093B80085E48093BC000895880F80930B
:101B9000BA0008956132A0F420912A07243091F40C
:101BA00060934F07DC01E2E5F7E070E06E0F7F1F06
:101BB00002C08D918193E617F707D9F780E0089569
:101BC00081E0089582E0089590934D0780934C073B
:101BD000089590935107809350070895882311F03A
:101BE00085EC01C085E88093BC00089585ED809365
:101BF000BC008091BC0084FDFCCF10922A070895A0
:101C000085EC8093BC0010922A0708951F920F92D2
:101C10000FB60F9211242F933F934F935F936F93BF
:101C20007F938F939F93AF93BF93EF93FF93809195
:101C3000B90090E0887F90708036910509F4C2C0A9
:101C400081369105E4F58832910509F47EC0893228
:101C50009105C4F48031910509F472C08131910578
:101C600044F4009709F413C18830910509F013C1B9
:101C700067C08831910509F468C08032910509F088
:101C80000AC178C08034910509F48AC08134910575
:101C90004CF48033910509F46FC08833910509F045
:101CA000FAC06EC08035910509F46EC08835910583
:101CB00009F47BC08834910509F0EDC0EAC0883989
:101CC000910509F4DAC089399105ECF4883791055A
:101CD00009F478C0893791054CF48836910509F4E8
:101CE00071C08037910509F0D6C06CC08838910565
:101CF00009F4C3C08039910509F46AC080389105A0
:101D000009F0C9C065C0803B910509F48EC0813BD4
:101D100091054CF4803A910509F46CC0883A91051C
:101D200009F0B9C082C0803C910509F4AAC0883C82
:101D3000910509F4A6C0883B910509F0ACC08AC0A2
:101D4000809106078093BB0013C090910707809194
:101D50000807981708F09DC080910707E82FF0E06A
:101D6000E75FF84F90819093BB008F5F80930707E8
:101D700081E084C080E201C080E38093290789C0AC
:101D800088E3809329074EC0809107079091BB009C
:101D9000E82FF0E0E75FF84F90838F5F80930707AD
:101DA000909107078091080765C08091070790917F
:101DB000BB00E82FF0E0E75FF84F90838F5F8093E0
:101DC000070767C083E080932A0710922B07D0CFC4
:101DD00080912B07803208F050C080912B079091A2
:101DE000BB00E82FF0E0E45DF84F90838F5F8093B5
:101DF0002B07BECF80912B07803230F4E0912B0768
:101E0000F0E0E45DF84F10820E94F60D60912B0720
:101E1000E0914C07F0914D078CE297E070E0099556
:101E200010922B070E94000E36C084E080932A0790
:101E300010924E0710924F07E0915007F091510712
:101E4000099580914F07882329F481E080934F07FB
:101E50001092520780914E07E82FF0E0EE5AF84FAB
:101E600090819093BB008F5F80934E0790914E07B7
:101E700080914F07981708F47BCF80E00E94EE0D09
:101E80000AC081E00E94EE0D10922A0704C0109251
:101E900029070E94F60DFF91EF91BF91AF919F919D
:101EA0008F917F916F915F914F913F912F910F9003
:101EB0000FBE0F901F901895F999FECF72BD61BDAE
:101EC000F89A80B50895F999FECF1FBA72BD61BD29
:101ED00040BD0FB6F894FA9AF99A0FBE089550587B
:101EE000BB27AA270ED0B4C0A5D030F0AAD020F0CE
:101EF00031F49F3F11F41EF49AC00EF4E095E7FB15
:101F000090C0E92FB6D080F3BA1762077307840731
:101F1000950718F071F49EF5CEC00EF4E0950B2EE7
:101F2000BA2FA02D0B01B90190010C01CA01A0012B
:101F30001124FF27591B99F0593F50F4503E68F186
:101F40001A16F040A22F232F342F4427585FF3CFC7
:101F5000469537952795A795F0405395C9F77EF498
:101F60001F16BA0B620B730B840BBAF09150A1F0E1
:101F7000FF0FBB1F661F771F881FC2F70EC0BA0F67
:101F8000621F731F841F48F4879577956795B795EF
:101F9000F7959E3F08F0B3CF9395880F08F09927E7
:101FA000EE0F979587950895E89409C097FB3EF446
:101FB00090958095709561957F4F8F4F9F4F992396
:101FC000A9F0F92F96E9BB279395F6958795779514
:101FD0006795B795F111F8CFFAF4BB0F11F460FFD4
:101FE0001BC06F5F7F4F8F4F9F4F16C0882311F02C
:101FF00096E911C0772321F09EE8872F762F05C040
:10200000662371F096E8862F70E060E02AF09A95DA
:10201000660F771F881FDAF7880F9695879597F9CF
:10202000089597F99F6780E870E060E008959FEF5A
:1020300080EC089500240A9416161706180609065F
:10204000089500240A94121613061406050608952E
:10205000092E0394000C11F4882352F0BB0F40F4B6
:10206000BF2B11F460FF04C06F5F7F4F8F4F9F4FF6
:10207000089557FD9058440F551F59F05F3F71F078
:102080004795880F97FB991F61F09F3F79F08795DF
:102090000895121613061406551FF2CF4695F1DF68
:1020A00008C0161617061806991FF1CF86957105F8
:1020B000610508940895E894BB2766277727CB012C
:1020C00097F908950BD0C4CFB5DF28F0BADF18F028
:1020D000952309F0A6CFABCF1124EECFCADFA0F332
:1020E000959FD1F3950F50E0551F629FF001729FAD
:1020F000BB27F00DB11D639FAA27F00DB11DAA1FCC
:10210000649F6627B00DA11D661F829F2227B00D18
:10211000A11D621F739FB00DA11D621F839FA00DA3
:10212000611D221F749F3327A00D611D231F849FF3
:10213000600D211D822F762F6A2F11249F5750404A
:102140008AF0E1F088234AF0EE0FFF1FBB1F661FE5
:10215000771F881F91505040A9F79E3F510570F09E
:1021600060CFAACF5F3FECF3983EDCF3869577957E
:102170006795B795F795E7959F5FC1F7FE2B880F99
:10218000911D9695879597F9089597FB092E072637
:102190000AD077FD04D02ED006D000201AF4709516
:1021A00061957F4F0895F6F7909581959F4F08951B
:1021B000A1E21A2EAA1BBB1BFD010DC0AA1FBB1F4B
:1021C000EE1FFF1FA217B307E407F50720F0A21BBD
:1021D000B30BE40BF50B661F771F881F991F1A942A
:1021E00069F760957095809590959B01AC01BD0154
:1021F000CF010895AA1BBB1B51E107C0AA1FBB1F3B
:10220000A617B70710F0A61BB70B881F991F5A9582
:10221000A9F780959095BC01CD010895EE0FFF1FA1
:0C2220000590F491E02D0994F894FFCF94
:10222C005265766F6C7665723A2000202800292062
:10223C00200020004765737469633A200020202039
:10224C0020200053656E736F723A2000010001E884
:10225C0003E803E803E803E803E803E803E803E81A
:10226C000301000100010001000100010001000157
:10227C0000010000000000030A8A0B9E09CD09B181
:10228C0009EF09000000003A0D080DA60CAF0CC3B5
:04229C000CD30C0053
:00000001FF
